{
  "contractName": "PartsFactory",
  "abi": [
    {
      "inputs": [
        {
          "internalType": "string",
          "name": "_name",
          "type": "string"
        },
        {
          "internalType": "string",
          "name": "_symbol",
          "type": "string"
        }
      ],
      "stateMutability": "nonpayable",
      "type": "constructor"
    },
    {
      "anonymous": false,
      "inputs": [
        {
          "indexed": true,
          "internalType": "address",
          "name": "owner",
          "type": "address"
        },
        {
          "indexed": true,
          "internalType": "address",
          "name": "approved",
          "type": "address"
        },
        {
          "indexed": true,
          "internalType": "uint256",
          "name": "tokenId",
          "type": "uint256"
        }
      ],
      "name": "Approval",
      "type": "event"
    },
    {
      "anonymous": false,
      "inputs": [
        {
          "indexed": true,
          "internalType": "address",
          "name": "owner",
          "type": "address"
        },
        {
          "indexed": true,
          "internalType": "address",
          "name": "operator",
          "type": "address"
        },
        {
          "indexed": false,
          "internalType": "bool",
          "name": "approved",
          "type": "bool"
        }
      ],
      "name": "ApprovalForAll",
      "type": "event"
    },
    {
      "anonymous": false,
      "inputs": [
        {
          "indexed": true,
          "internalType": "address",
          "name": "from",
          "type": "address"
        },
        {
          "indexed": true,
          "internalType": "address",
          "name": "to",
          "type": "address"
        },
        {
          "indexed": true,
          "internalType": "uint256",
          "name": "tokenId",
          "type": "uint256"
        }
      ],
      "name": "Transfer",
      "type": "event"
    },
    {
      "inputs": [
        {
          "internalType": "address",
          "name": "to",
          "type": "address"
        },
        {
          "internalType": "uint256",
          "name": "tokenId",
          "type": "uint256"
        }
      ],
      "name": "approve",
      "outputs": [],
      "stateMutability": "nonpayable",
      "type": "function"
    },
    {
      "inputs": [
        {
          "internalType": "address",
          "name": "owner",
          "type": "address"
        }
      ],
      "name": "balanceOf",
      "outputs": [
        {
          "internalType": "uint256",
          "name": "",
          "type": "uint256"
        }
      ],
      "stateMutability": "view",
      "type": "function"
    },
    {
      "inputs": [
        {
          "internalType": "uint256",
          "name": "tokenId",
          "type": "uint256"
        }
      ],
      "name": "getApproved",
      "outputs": [
        {
          "internalType": "address",
          "name": "",
          "type": "address"
        }
      ],
      "stateMutability": "view",
      "type": "function"
    },
    {
      "inputs": [
        {
          "internalType": "address",
          "name": "owner",
          "type": "address"
        },
        {
          "internalType": "address",
          "name": "operator",
          "type": "address"
        }
      ],
      "name": "isApprovedForAll",
      "outputs": [
        {
          "internalType": "bool",
          "name": "",
          "type": "bool"
        }
      ],
      "stateMutability": "view",
      "type": "function"
    },
    {
      "inputs": [],
      "name": "name",
      "outputs": [
        {
          "internalType": "string",
          "name": "",
          "type": "string"
        }
      ],
      "stateMutability": "view",
      "type": "function"
    },
    {
      "inputs": [
        {
          "internalType": "uint256",
          "name": "tokenId",
          "type": "uint256"
        }
      ],
      "name": "ownerOf",
      "outputs": [
        {
          "internalType": "address",
          "name": "",
          "type": "address"
        }
      ],
      "stateMutability": "view",
      "type": "function"
    },
    {
      "inputs": [
        {
          "internalType": "uint256",
          "name": "",
          "type": "uint256"
        }
      ],
      "name": "parts",
      "outputs": [
        {
          "internalType": "uint256",
          "name": "partNumber",
          "type": "uint256"
        },
        {
          "internalType": "string",
          "name": "name",
          "type": "string"
        },
        {
          "internalType": "string",
          "name": "manufacturer",
          "type": "string"
        },
        {
          "internalType": "enum PartsFactory.AssemblyStatus",
          "name": "status",
          "type": "uint8"
        },
        {
          "internalType": "uint256",
          "name": "parentPartId",
          "type": "uint256"
        }
      ],
      "stateMutability": "view",
      "type": "function"
    },
    {
      "inputs": [
        {
          "internalType": "address",
          "name": "from",
          "type": "address"
        },
        {
          "internalType": "address",
          "name": "to",
          "type": "address"
        },
        {
          "internalType": "uint256",
          "name": "tokenId",
          "type": "uint256"
        }
      ],
      "name": "safeTransferFrom",
      "outputs": [],
      "stateMutability": "nonpayable",
      "type": "function"
    },
    {
      "inputs": [
        {
          "internalType": "address",
          "name": "from",
          "type": "address"
        },
        {
          "internalType": "address",
          "name": "to",
          "type": "address"
        },
        {
          "internalType": "uint256",
          "name": "tokenId",
          "type": "uint256"
        },
        {
          "internalType": "bytes",
          "name": "_data",
          "type": "bytes"
        }
      ],
      "name": "safeTransferFrom",
      "outputs": [],
      "stateMutability": "nonpayable",
      "type": "function"
    },
    {
      "inputs": [
        {
          "internalType": "address",
          "name": "operator",
          "type": "address"
        },
        {
          "internalType": "bool",
          "name": "approved",
          "type": "bool"
        }
      ],
      "name": "setApprovalForAll",
      "outputs": [],
      "stateMutability": "nonpayable",
      "type": "function"
    },
    {
      "inputs": [
        {
          "internalType": "bytes4",
          "name": "interfaceId",
          "type": "bytes4"
        }
      ],
      "name": "supportsInterface",
      "outputs": [
        {
          "internalType": "bool",
          "name": "",
          "type": "bool"
        }
      ],
      "stateMutability": "view",
      "type": "function"
    },
    {
      "inputs": [],
      "name": "symbol",
      "outputs": [
        {
          "internalType": "string",
          "name": "",
          "type": "string"
        }
      ],
      "stateMutability": "view",
      "type": "function"
    },
    {
      "inputs": [
        {
          "internalType": "uint256",
          "name": "tokenId",
          "type": "uint256"
        }
      ],
      "name": "tokenURI",
      "outputs": [
        {
          "internalType": "string",
          "name": "",
          "type": "string"
        }
      ],
      "stateMutability": "view",
      "type": "function"
    },
    {
      "inputs": [
        {
          "internalType": "address",
          "name": "from",
          "type": "address"
        },
        {
          "internalType": "address",
          "name": "to",
          "type": "address"
        },
        {
          "internalType": "uint256",
          "name": "tokenId",
          "type": "uint256"
        }
      ],
      "name": "transferFrom",
      "outputs": [],
      "stateMutability": "nonpayable",
      "type": "function"
    },
    {
      "inputs": [
        {
          "internalType": "address",
          "name": "_owner",
          "type": "address"
        },
        {
          "internalType": "uint256",
          "name": "_partNumber",
          "type": "uint256"
        },
        {
          "internalType": "string",
          "name": "_name",
          "type": "string"
        },
        {
          "internalType": "string",
          "name": "_manufacturer",
          "type": "string"
        }
      ],
      "name": "mintSinglePart",
      "outputs": [
        {
          "internalType": "uint256",
          "name": "",
          "type": "uint256"
        }
      ],
      "stateMutability": "nonpayable",
      "type": "function"
    },
    {
      "inputs": [
        {
          "internalType": "uint256",
          "name": "_newPartNumber",
          "type": "uint256"
        },
        {
          "internalType": "string",
          "name": "_newPartName",
          "type": "string"
        },
        {
          "internalType": "string",
          "name": "_newPartManufacturer",
          "type": "string"
        },
        {
          "internalType": "uint256[]",
          "name": "_partIds",
          "type": "uint256[]"
        }
      ],
      "name": "assembleParts",
      "outputs": [
        {
          "internalType": "uint256",
          "name": "",
          "type": "uint256"
        }
      ],
      "stateMutability": "nonpayable",
      "type": "function"
    },
    {
      "inputs": [
        {
          "internalType": "uint256",
          "name": "_partId",
          "type": "uint256"
        }
      ],
      "name": "disassemblePart",
      "outputs": [
        {
          "internalType": "uint256[]",
          "name": "",
          "type": "uint256[]"
        }
      ],
      "stateMutability": "nonpayable",
      "type": "function"
    },
    {
      "inputs": [
        {
          "internalType": "uint256",
          "name": "_assemblyPartId",
          "type": "uint256"
        },
        {
          "internalType": "uint256",
          "name": "_partId",
          "type": "uint256"
        }
      ],
      "name": "addToAssembly",
      "outputs": [],
      "stateMutability": "nonpayable",
      "type": "function"
    },
    {
      "inputs": [
        {
          "internalType": "uint256",
          "name": "_assemblyPartId",
          "type": "uint256"
        },
        {
          "internalType": "uint256",
          "name": "_partId",
          "type": "uint256"
        }
      ],
      "name": "removeFromAssembly",
      "outputs": [],
      "stateMutability": "nonpayable",
      "type": "function"
    }
  ],
  "bytecode": "0x60806040523480156200001157600080fd5b5060405162004afb38038062004afb8339818101604052810190620000379190620002c2565b818181600090805190602001906200005192919062000075565b5080600190805190602001906200006a92919062000075565b5050505050620003ac565b828054620000839062000376565b90600052602060002090601f016020900481019282620000a75760008555620000f3565b82601f10620000c257805160ff1916838001178555620000f3565b82800160010185558215620000f3579182015b82811115620000f2578251825591602001919060010190620000d5565b5b50905062000102919062000106565b5090565b5b808211156200012157600081600090555060010162000107565b5090565b6000604051905090565b600080fd5b600080fd5b600080fd5b600080fd5b6000601f19601f8301169050919050565b7f4e487b7100000000000000000000000000000000000000000000000000000000600052604160045260246000fd5b6200018e8262000143565b810181811067ffffffffffffffff82111715620001b057620001af62000154565b5b80604052505050565b6000620001c562000125565b9050620001d3828262000183565b919050565b600067ffffffffffffffff821115620001f657620001f562000154565b5b620002018262000143565b9050602081019050919050565b60005b838110156200022e57808201518184015260208101905062000211565b838111156200023e576000848401525b50505050565b60006200025b6200025584620001d8565b620001b9565b9050828152602081018484840111156200027a57620002796200013e565b5b620002878482856200020e565b509392505050565b600082601f830112620002a757620002a662000139565b5b8151620002b984826020860162000244565b91505092915050565b60008060408385031215620002dc57620002db6200012f565b5b600083015167ffffffffffffffff811115620002fd57620002fc62000134565b5b6200030b858286016200028f565b925050602083015167ffffffffffffffff8111156200032f576200032e62000134565b5b6200033d858286016200028f565b9150509250929050565b7f4e487b7100000000000000000000000000000000000000000000000000000000600052602260045260246000fd5b600060028204905060018216806200038f57607f821691505b60208210811415620003a657620003a562000347565b5b50919050565b61473f80620003bc6000396000f3fe608060405234801561001057600080fd5b50600436106101215760003560e01c80636352211e116100ad578063b88d4fde11610071578063b88d4fde1461032a578063c87b56dd14610346578063c9eb466214610376578063ccb52037146103aa578063e985e9c5146103da57610121565b80636352211e146102745780636a2d90b6146102a457806370a08231146102c057806395d89b41146102f0578063a22cb4651461030e57610121565b80631f565307116100f45780631f565307146101c057806323b872dd146101f057806326f833431461020c57806342842e0e1461022857806354fc223f1461024457610121565b806301ffc9a71461012657806306fdde0314610156578063081812fc14610174578063095ea7b3146101a4575b600080fd5b610140600480360381019061013b919061298b565b61040a565b60405161014d91906129d3565b60405180910390f35b61015e6104ec565b60405161016b9190612a87565b60405180910390f35b61018e60048036038101906101899190612adf565b61057e565b60405161019b9190612b4d565b60405180910390f35b6101be60048036038101906101b99190612b94565b610603565b005b6101da60048036038101906101d59190612dd1565b61071b565b6040516101e79190612e9b565b60405180910390f35b61020a60048036038101906102059190612eb6565b6109c6565b005b61022660048036038101906102219190612f09565b610a26565b005b610242600480360381019061023d9190612eb6565b610bed565b005b61025e60048036038101906102599190612adf565b610c0d565b60405161026b9190613007565b60405180910390f35b61028e60048036038101906102899190612adf565b610e9b565b60405161029b9190612b4d565b60405180910390f35b6102be60048036038101906102b99190612f09565b610f4d565b005b6102da60048036038101906102d59190613029565b6111ce565b6040516102e79190612e9b565b60405180910390f35b6102f8611286565b6040516103059190612a87565b60405180910390f35b61032860048036038101906103239190613082565b611318565b005b610344600480360381019061033f9190613163565b61132e565b005b610360600480360381019061035b9190612adf565b611390565b60405161036d9190612a87565b60405180910390f35b610390600480360381019061038b9190612adf565b611437565b6040516103a195949392919061325d565b60405180910390f35b6103c460048036038101906103bf91906132be565b61158a565b6040516103d19190612e9b565b60405180910390f35b6103f460048036038101906103ef919061335d565b6117c6565b60405161040191906129d3565b60405180910390f35b60007f80ac58cd000000000000000000000000000000000000000000000000000000007bffffffffffffffffffffffffffffffffffffffffffffffffffffffff1916827bffffffffffffffffffffffffffffffffffffffffffffffffffffffff191614806104d557507f5b5e139f000000000000000000000000000000000000000000000000000000007bffffffffffffffffffffffffffffffffffffffffffffffffffffffff1916827bffffffffffffffffffffffffffffffffffffffffffffffffffffffff1916145b806104e557506104e48261185a565b5b9050919050565b6060600080546104fb906133cc565b80601f0160208091040260200160405190810160405280929190818152602001828054610527906133cc565b80156105745780601f1061054957610100808354040283529160200191610574565b820191906000526020600020905b81548152906001019060200180831161055757829003601f168201915b5050505050905090565b6000610589826118c4565b6105c8576040517f08c379a00000000000000000000000000000000000000000000000000000000081526004016105bf90613470565b60405180910390fd5b6004600083815260200190815260200160002060009054906101000a900473ffffffffffffffffffffffffffffffffffffffff169050919050565b600061060e82610e9b565b90508073ffffffffffffffffffffffffffffffffffffffff168373ffffffffffffffffffffffffffffffffffffffff16141561067f576040517f08c379a000000000000000000000000000000000000000000000000000000000815260040161067690613502565b60405180910390fd5b8073ffffffffffffffffffffffffffffffffffffffff1661069e611930565b73ffffffffffffffffffffffffffffffffffffffff1614806106cd57506106cc816106c7611930565b6117c6565b5b61070c576040517f08c379a000000000000000000000000000000000000000000000000000000000815260040161070390613594565b60405180910390fd5b6107168383611938565b505050565b60006001825111610761576040517f08c379a000000000000000000000000000000000000000000000000000000000815260040161075890613626565b60405180910390fd5b600a825111156107a6576040517f08c379a000000000000000000000000000000000000000000000000000000000815260040161079d90613692565b60405180910390fd5b600080600090505b83518160ff1610156108c65760006107e2858360ff16815181106107d5576107d46136b2565b5b6020026020010151610e9b565b90508273ffffffffffffffffffffffffffffffffffffffff168173ffffffffffffffffffffffffffffffffffffffff16148061084a5750600073ffffffffffffffffffffffffffffffffffffffff168373ffffffffffffffffffffffffffffffffffffffff16145b610889576040517f08c379a000000000000000000000000000000000000000000000000000000000815260040161088090613753565b60405180910390fd5b6108af858360ff16815181106108a2576108a16136b2565b5b60200260200101516119f1565b8092505080806108be906137af565b9150506107ae565b5060006108d58288888861158a565b9050836007600083815260200190815260200160002060050190805190602001906109019291906127ce565b5060005b84518160ff1610156109b857600160076000878460ff168151811061092d5761092c6136b2565b5b6020026020010151815260200190815260200160002060030160006101000a81548160ff02191690836001811115610968576109676131e6565b5b02179055508160076000878460ff1681518110610988576109876136b2565b5b602002602001015181526020019081526020016000206004018190555080806109b0906137af565b915050610905565b508092505050949350505050565b6109d76109d1611930565b82611ac7565b610a16576040517f08c379a0000000000000000000000000000000000000000000000000000000008152600401610a0d9061384b565b60405180910390fd5b610a21838383611ba5565b505050565b600a600760008481526020019081526020016000206005018054905010610a82576040517f08c379a0000000000000000000000000000000000000000000000000000000008152600401610a79906138b7565b60405180910390fd5b610a8b81610e9b565b73ffffffffffffffffffffffffffffffffffffffff16610aaa83610e9b565b73ffffffffffffffffffffffffffffffffffffffff1614610b00576040517f08c379a0000000000000000000000000000000000000000000000000000000008152600401610af790613949565b60405180910390fd5b610b0a3383611ac7565b610b49576040517f08c379a0000000000000000000000000000000000000000000000000000000008152600401610b40906139db565b60405180910390fd5b610b52816119f1565b6007600083815260200190815260200160002060050181908060018154018082558091505060019003906000526020600020016000909190919091505560016007600083815260200190815260200160002060030160006101000a81548160ff02191690836001811115610bc957610bc86131e6565b5b02179055508160076000838152602001908152602001600020600401819055505050565b610c088383836040518060200160405280600081525061132e565b505050565b60606000600760008481526020019081526020016000206005018054905011610c6b576040517f08c379a0000000000000000000000000000000000000000000000000000000008152600401610c6290613a6d565b60405180910390fd5b610c74826119f1565b60006007600084815260200190815260200160002060050180549050905060008167ffffffffffffffff811115610cae57610cad612bde565b5b604051908082528060200260200182016040528015610cdc5781602001602082028036833780820191505090505b50905060005b828160ff161015610e1d57600760008681526020019081526020016000206005018160ff1681548110610d1857610d176136b2565b5b9060005260206000200154828260ff1681518110610d3957610d386136b2565b5b602002602001018181525050600060076000600760008981526020019081526020016000206005018460ff1681548110610d7657610d756136b2565b5b9060005260206000200154815260200190815260200160002060030160006101000a81548160ff02191690836001811115610db457610db36131e6565b5b0217905550600060076000600760008981526020019081526020016000206005018460ff1681548110610dea57610de96136b2565b5b90600052602060002001548152602001908152602001600020600401819055508080610e15906137af565b915050610ce2565b50610e2784611e01565b60076000858152602001908152602001600020600080820160009055600182016000610e53919061281b565b600282016000610e63919061281b565b6003820160006101000a81549060ff02191690556004820160009055600582016000610e8f919061285b565b50508092505050919050565b6000806002600084815260200190815260200160002060009054906101000a900473ffffffffffffffffffffffffffffffffffffffff169050600073ffffffffffffffffffffffffffffffffffffffff168173ffffffffffffffffffffffffffffffffffffffff161415610f44576040517f08c379a0000000000000000000000000000000000000000000000000000000008152600401610f3b90613aff565b60405180910390fd5b80915050919050565b610f573383611ac7565b610f96576040517f08c379a0000000000000000000000000000000000000000000000000000000008152600401610f8d90613b91565b60405180910390fd5b6002600760008381526020019081526020016000206005018054905011610ff2576040517f08c379a0000000000000000000000000000000000000000000000000000000008152600401610fe990613bfd565b60405180910390fd5b6000806007600085815260200190815260200160002060050180549050905060005b818160ff1610156111875783600760008781526020019081526020016000206005018260ff168154811061104b5761104a6136b2565b5b906000526020600020015414156111745760019250600760008681526020019081526020016000206005016001836110839190613c1d565b81548110611094576110936136b2565b5b9060005260206000200154600760008781526020019081526020016000206005018260ff16815481106110ca576110c96136b2565b5b9060005260206000200181905550600760008681526020019081526020016000206005018054806110fe576110fd613c51565b5b6001900381819060005260206000200160009055905560006007600086815260200190815260200160002060030160006101000a81548160ff0219169083600181111561114e5761114d6131e6565b5b021790555060006007600086815260200190815260200160002060040181905550611187565b808061117f906137af565b915050611014565b50816111c8576040517f08c379a00000000000000000000000000000000000000000000000000000000081526004016111bf90613cf2565b60405180910390fd5b50505050565b60008073ffffffffffffffffffffffffffffffffffffffff168273ffffffffffffffffffffffffffffffffffffffff16141561123f576040517f08c379a000000000000000000000000000000000000000000000000000000000815260040161123690613d84565b60405180910390fd5b600360008373ffffffffffffffffffffffffffffffffffffffff1673ffffffffffffffffffffffffffffffffffffffff168152602001908152602001600020549050919050565b606060018054611295906133cc565b80601f01602080910402602001604051908101604052809291908181526020018280546112c1906133cc565b801561130e5780601f106112e35761010080835404028352916020019161130e565b820191906000526020600020905b8154815290600101906020018083116112f157829003601f168201915b5050505050905090565b61132a611323611930565b8383611f12565b5050565b61133f611339611930565b83611ac7565b61137e576040517f08c379a00000000000000000000000000000000000000000000000000000000081526004016113759061384b565b60405180910390fd5b61138a8484848461207f565b50505050565b606061139b826118c4565b6113da576040517f08c379a00000000000000000000000000000000000000000000000000000000081526004016113d190613e16565b60405180910390fd5b60006113e46120db565b90506000815111611404576040518060200160405280600081525061142f565b8061140e846120f2565b60405160200161141f929190613e72565b6040516020818303038152906040525b915050919050565b6007602052806000526040600020600091509050806000015490806001018054611460906133cc565b80601f016020809104026020016040519081016040528092919081815260200182805461148c906133cc565b80156114d95780601f106114ae576101008083540402835291602001916114d9565b820191906000526020600020905b8154815290600101906020018083116114bc57829003601f168201915b5050505050908060020180546114ee906133cc565b80601f016020809104026020016040519081016040528092919081815260200182805461151a906133cc565b80156115675780601f1061153c57610100808354040283529160200191611567565b820191906000526020600020905b81548152906001019060200180831161154a57829003601f168201915b5050505050908060030160009054906101000a900460ff16908060040154905085565b6000808414156115cf576040517f08c379a00000000000000000000000000000000000000000000000000000000081526004016115c690613ee2565b60405180910390fd5b6000835111611613576040517f08c379a000000000000000000000000000000000000000000000000000000000815260040161160a90613f4e565b60405180910390fd5b6000825111611657576040517f08c379a000000000000000000000000000000000000000000000000000000000815260040161164e90613fe0565b60405180910390fd5b60006040518060c001604052808681526020018581526020018481526020016000600181111561168a576116896131e6565b5b815260200160008152602001600067ffffffffffffffff8111156116b1576116b0612bde565b5b6040519080825280602002602001820160405280156116df5781602001602082028036833780820191505090505b5081525090506116ef6006612253565b60006116fb6006612269565b9050816007600083815260200190815260200160002060008201518160000155602082015181600101908051906020019061173792919061287c565b50604082015181600201908051906020019061175492919061287c565b5060608201518160030160006101000a81548160ff021916908360018111156117805761177f6131e6565b5b02179055506080820151816004015560a08201518160050190805190602001906117ab9291906127ce565b509050506117b98782612277565b8092505050949350505050565b6000600560008473ffffffffffffffffffffffffffffffffffffffff1673ffffffffffffffffffffffffffffffffffffffff16815260200190815260200160002060008373ffffffffffffffffffffffffffffffffffffffff1673ffffffffffffffffffffffffffffffffffffffff16815260200190815260200160002060009054906101000a900460ff16905092915050565b60007f01ffc9a7000000000000000000000000000000000000000000000000000000007bffffffffffffffffffffffffffffffffffffffffffffffffffffffff1916827bffffffffffffffffffffffffffffffffffffffffffffffffffffffff1916149050919050565b60008073ffffffffffffffffffffffffffffffffffffffff166002600084815260200190815260200160002060009054906101000a900473ffffffffffffffffffffffffffffffffffffffff1673ffffffffffffffffffffffffffffffffffffffff1614159050919050565b600033905090565b816004600083815260200190815260200160002060006101000a81548173ffffffffffffffffffffffffffffffffffffffff021916908373ffffffffffffffffffffffffffffffffffffffff160217905550808273ffffffffffffffffffffffffffffffffffffffff166119ab83610e9b565b73ffffffffffffffffffffffffffffffffffffffff167f8c5be1e5ebec7d5bd14f71427d1e84f3dd0314c0f7b2291e5b200ac8c7c3b92560405160405180910390a45050565b6119fb3382611ac7565b611a3a576040517f08c379a0000000000000000000000000000000000000000000000000000000008152600401611a3190614072565b60405180910390fd5b60006001811115611a4e57611a4d6131e6565b5b6007600083815260200190815260200160002060030160009054906101000a900460ff166001811115611a8457611a836131e6565b5b14611ac4576040517f08c379a0000000000000000000000000000000000000000000000000000000008152600401611abb906140de565b60405180910390fd5b50565b6000611ad2826118c4565b611b11576040517f08c379a0000000000000000000000000000000000000000000000000000000008152600401611b0890614170565b60405180910390fd5b6000611b1c83610e9b565b90508073ffffffffffffffffffffffffffffffffffffffff168473ffffffffffffffffffffffffffffffffffffffff161480611b8b57508373ffffffffffffffffffffffffffffffffffffffff16611b738461057e565b73ffffffffffffffffffffffffffffffffffffffff16145b80611b9c5750611b9b81856117c6565b5b91505092915050565b8273ffffffffffffffffffffffffffffffffffffffff16611bc582610e9b565b73ffffffffffffffffffffffffffffffffffffffff1614611c1b576040517f08c379a0000000000000000000000000000000000000000000000000000000008152600401611c1290614202565b60405180910390fd5b600073ffffffffffffffffffffffffffffffffffffffff168273ffffffffffffffffffffffffffffffffffffffff161415611c8b576040517f08c379a0000000000000000000000000000000000000000000000000000000008152600401611c8290614294565b60405180910390fd5b611c96838383612445565b611ca1600082611938565b6001600360008573ffffffffffffffffffffffffffffffffffffffff1673ffffffffffffffffffffffffffffffffffffffff1681526020019081526020016000206000828254611cf19190613c1d565b925050819055506001600360008473ffffffffffffffffffffffffffffffffffffffff1673ffffffffffffffffffffffffffffffffffffffff1681526020019081526020016000206000828254611d4891906142b4565b92505081905550816002600083815260200190815260200160002060006101000a81548173ffffffffffffffffffffffffffffffffffffffff021916908373ffffffffffffffffffffffffffffffffffffffff160217905550808273ffffffffffffffffffffffffffffffffffffffff168473ffffffffffffffffffffffffffffffffffffffff167fddf252ad1be2c89b69c2b068fc378daa952ba7f163c4a11628f55a4df523b3ef60405160405180910390a4505050565b6000611e0c82610e9b565b9050611e1a81600084612445565b611e25600083611938565b6001600360008373ffffffffffffffffffffffffffffffffffffffff1673ffffffffffffffffffffffffffffffffffffffff1681526020019081526020016000206000828254611e759190613c1d565b925050819055506002600083815260200190815260200160002060006101000a81549073ffffffffffffffffffffffffffffffffffffffff021916905581600073ffffffffffffffffffffffffffffffffffffffff168273ffffffffffffffffffffffffffffffffffffffff167fddf252ad1be2c89b69c2b068fc378daa952ba7f163c4a11628f55a4df523b3ef60405160405180910390a45050565b8173ffffffffffffffffffffffffffffffffffffffff168373ffffffffffffffffffffffffffffffffffffffff161415611f81576040517f08c379a0000000000000000000000000000000000000000000000000000000008152600401611f7890614356565b60405180910390fd5b80600560008573ffffffffffffffffffffffffffffffffffffffff1673ffffffffffffffffffffffffffffffffffffffff16815260200190815260200160002060008473ffffffffffffffffffffffffffffffffffffffff1673ffffffffffffffffffffffffffffffffffffffff16815260200190815260200160002060006101000a81548160ff0219169083151502179055508173ffffffffffffffffffffffffffffffffffffffff168373ffffffffffffffffffffffffffffffffffffffff167f17307eab39ab6107e8899845ad3d59bd9653f200f220920489ca2b5937696c318360405161207291906129d3565b60405180910390a3505050565b61208a848484611ba5565b61209684848484612633565b6120d5576040517f08c379a00000000000000000000000000000000000000000000000000000000081526004016120cc906143e8565b60405180910390fd5b50505050565b606060405180602001604052806000815250905090565b6060600082141561213a576040518060400160405280600181526020017f3000000000000000000000000000000000000000000000000000000000000000815250905061224e565b600082905060005b6000821461216c57808061215590614408565b915050600a826121659190614480565b9150612142565b60008167ffffffffffffffff81111561218857612187612bde565b5b6040519080825280601f01601f1916602001820160405280156121ba5781602001600182028036833780820191505090505b5090505b60008514612247576001826121d39190613c1d565b9150600a856121e291906144b1565b60306121ee91906142b4565b60f81b818381518110612204576122036136b2565b5b60200101907effffffffffffffffffffffffffffffffffffffffffffffffffffffffffffff1916908160001a905350600a856122409190614480565b94506121be565b8093505050505b919050565b6001816000016000828254019250508190555050565b600081600001549050919050565b600073ffffffffffffffffffffffffffffffffffffffff168273ffffffffffffffffffffffffffffffffffffffff1614156122e7576040517f08c379a00000000000000000000000000000000000000000000000000000000081526004016122de9061452e565b60405180910390fd5b6122f0816118c4565b15612330576040517f08c379a00000000000000000000000000000000000000000000000000000000081526004016123279061459a565b60405180910390fd5b61233c60008383612445565b6001600360008473ffffffffffffffffffffffffffffffffffffffff1673ffffffffffffffffffffffffffffffffffffffff168152602001908152602001600020600082825461238c91906142b4565b92505081905550816002600083815260200190815260200160002060006101000a81548173ffffffffffffffffffffffffffffffffffffffff021916908373ffffffffffffffffffffffffffffffffffffffff160217905550808273ffffffffffffffffffffffffffffffffffffffff16600073ffffffffffffffffffffffffffffffffffffffff167fddf252ad1be2c89b69c2b068fc378daa952ba7f163c4a11628f55a4df523b3ef60405160405180910390a45050565b600073ffffffffffffffffffffffffffffffffffffffff168373ffffffffffffffffffffffffffffffffffffffff1614806124ac5750600073ffffffffffffffffffffffffffffffffffffffff168273ffffffffffffffffffffffffffffffffffffffff16145b156124b65761262e565b600860000160009054906101000a900460ff1661258057600060018111156124e1576124e06131e6565b5b6007600083815260200190815260200160002060030160009054906101000a900460ff166001811115612517576125166131e6565b5b14612557576040517f08c379a000000000000000000000000000000000000000000000000000000000815260040161254e90614606565b60405180910390fd5b6001600860000160006101000a81548160ff021916908315150217905550806008600101819055505b60006007600083815260200190815260200160002060050180549050905060005b818160ff1610156125ff576125ec8585600760008781526020019081526020016000206005018460ff16815481106125dc576125db6136b2565b5b9060005260206000200154611ba5565b80806125f7906137af565b9150506125a1565b5060086001015482141561262c576000600860000160006101000a81548160ff0219169083151502179055505b505b505050565b60006126548473ffffffffffffffffffffffffffffffffffffffff166127bb565b156127ae578373ffffffffffffffffffffffffffffffffffffffff1663150b7a0261267d611930565b8786866040518563ffffffff1660e01b815260040161269f949392919061467b565b6020604051808303816000875af19250505080156126db57506040513d601f19601f820116820180604052508101906126d891906146dc565b60015b61275e573d806000811461270b576040519150601f19603f3d011682016040523d82523d6000602084013e612710565b606091505b50600081511415612756576040517f08c379a000000000000000000000000000000000000000000000000000000000815260040161274d906143e8565b60405180910390fd5b805181602001fd5b63150b7a0260e01b7bffffffffffffffffffffffffffffffffffffffffffffffffffffffff1916817bffffffffffffffffffffffffffffffffffffffffffffffffffffffff1916149150506127b3565b600190505b949350505050565b600080823b905060008111915050919050565b82805482825590600052602060002090810192821561280a579160200282015b828111156128095782518255916020019190600101906127ee565b5b5090506128179190612902565b5090565b508054612827906133cc565b6000825580601f106128395750612858565b601f0160209004906000526020600020908101906128579190612902565b5b50565b50805460008255906000526020600020908101906128799190612902565b50565b828054612888906133cc565b90600052602060002090601f0160209004810192826128aa57600085556128f1565b82601f106128c357805160ff19168380011785556128f1565b828001600101855582156128f1579182015b828111156128f05782518255916020019190600101906128d5565b5b5090506128fe9190612902565b5090565b5b8082111561291b576000816000905550600101612903565b5090565b6000604051905090565b600080fd5b600080fd5b60007fffffffff0000000000000000000000000000000000000000000000000000000082169050919050565b61296881612933565b811461297357600080fd5b50565b6000813590506129858161295f565b92915050565b6000602082840312156129a1576129a0612929565b5b60006129af84828501612976565b91505092915050565b60008115159050919050565b6129cd816129b8565b82525050565b60006020820190506129e860008301846129c4565b92915050565b600081519050919050565b600082825260208201905092915050565b60005b83811015612a28578082015181840152602081019050612a0d565b83811115612a37576000848401525b50505050565b6000601f19601f8301169050919050565b6000612a59826129ee565b612a6381856129f9565b9350612a73818560208601612a0a565b612a7c81612a3d565b840191505092915050565b60006020820190508181036000830152612aa18184612a4e565b905092915050565b6000819050919050565b612abc81612aa9565b8114612ac757600080fd5b50565b600081359050612ad981612ab3565b92915050565b600060208284031215612af557612af4612929565b5b6000612b0384828501612aca565b91505092915050565b600073ffffffffffffffffffffffffffffffffffffffff82169050919050565b6000612b3782612b0c565b9050919050565b612b4781612b2c565b82525050565b6000602082019050612b626000830184612b3e565b92915050565b612b7181612b2c565b8114612b7c57600080fd5b50565b600081359050612b8e81612b68565b92915050565b60008060408385031215612bab57612baa612929565b5b6000612bb985828601612b7f565b9250506020612bca85828601612aca565b9150509250929050565b600080fd5b600080fd5b7f4e487b7100000000000000000000000000000000000000000000000000000000600052604160045260246000fd5b612c1682612a3d565b810181811067ffffffffffffffff82111715612c3557612c34612bde565b5b80604052505050565b6000612c4861291f565b9050612c548282612c0d565b919050565b600067ffffffffffffffff821115612c7457612c73612bde565b5b612c7d82612a3d565b9050602081019050919050565b82818337600083830152505050565b6000612cac612ca784612c59565b612c3e565b905082815260208101848484011115612cc857612cc7612bd9565b5b612cd3848285612c8a565b509392505050565b600082601f830112612cf057612cef612bd4565b5b8135612d00848260208601612c99565b91505092915050565b600067ffffffffffffffff821115612d2457612d23612bde565b5b602082029050602081019050919050565b600080fd5b6000612d4d612d4884612d09565b612c3e565b90508083825260208201905060208402830185811115612d7057612d6f612d35565b5b835b81811015612d995780612d858882612aca565b845260208401935050602081019050612d72565b5050509392505050565b600082601f830112612db857612db7612bd4565b5b8135612dc8848260208601612d3a565b91505092915050565b60008060008060808587031215612deb57612dea612929565b5b6000612df987828801612aca565b945050602085013567ffffffffffffffff811115612e1a57612e1961292e565b5b612e2687828801612cdb565b935050604085013567ffffffffffffffff811115612e4757612e4661292e565b5b612e5387828801612cdb565b925050606085013567ffffffffffffffff811115612e7457612e7361292e565b5b612e8087828801612da3565b91505092959194509250565b612e9581612aa9565b82525050565b6000602082019050612eb06000830184612e8c565b92915050565b600080600060608486031215612ecf57612ece612929565b5b6000612edd86828701612b7f565b9350506020612eee86828701612b7f565b9250506040612eff86828701612aca565b9150509250925092565b60008060408385031215612f2057612f1f612929565b5b6000612f2e85828601612aca565b9250506020612f3f85828601612aca565b9150509250929050565b600081519050919050565b600082825260208201905092915050565b6000819050602082019050919050565b612f7e81612aa9565b82525050565b6000612f908383612f75565b60208301905092915050565b6000602082019050919050565b6000612fb482612f49565b612fbe8185612f54565b9350612fc983612f65565b8060005b83811015612ffa578151612fe18882612f84565b9750612fec83612f9c565b925050600181019050612fcd565b5085935050505092915050565b600060208201905081810360008301526130218184612fa9565b905092915050565b60006020828403121561303f5761303e612929565b5b600061304d84828501612b7f565b91505092915050565b61305f816129b8565b811461306a57600080fd5b50565b60008135905061307c81613056565b92915050565b6000806040838503121561309957613098612929565b5b60006130a785828601612b7f565b92505060206130b88582860161306d565b9150509250929050565b600067ffffffffffffffff8211156130dd576130dc612bde565b5b6130e682612a3d565b9050602081019050919050565b6000613106613101846130c2565b612c3e565b90508281526020810184848401111561312257613121612bd9565b5b61312d848285612c8a565b509392505050565b600082601f83011261314a57613149612bd4565b5b813561315a8482602086016130f3565b91505092915050565b6000806000806080858703121561317d5761317c612929565b5b600061318b87828801612b7f565b945050602061319c87828801612b7f565b93505060406131ad87828801612aca565b925050606085013567ffffffffffffffff8111156131ce576131cd61292e565b5b6131da87828801613135565b91505092959194509250565b7f4e487b7100000000000000000000000000000000000000000000000000000000600052602160045260246000fd5b60028110613226576132256131e6565b5b50565b600081905061323782613215565b919050565b600061324782613229565b9050919050565b6132578161323c565b82525050565b600060a0820190506132726000830188612e8c565b81810360208301526132848187612a4e565b905081810360408301526132988186612a4e565b90506132a7606083018561324e565b6132b46080830184612e8c565b9695505050505050565b600080600080608085870312156132d8576132d7612929565b5b60006132e687828801612b7f565b94505060206132f787828801612aca565b935050604085013567ffffffffffffffff8111156133185761331761292e565b5b61332487828801612cdb565b925050606085013567ffffffffffffffff8111156133455761334461292e565b5b61335187828801612cdb565b91505092959194509250565b6000806040838503121561337457613373612929565b5b600061338285828601612b7f565b925050602061339385828601612b7f565b9150509250929050565b7f4e487b7100000000000000000000000000000000000000000000000000000000600052602260045260246000fd5b600060028204905060018216806133e457607f821691505b602082108114156133f8576133f761339d565b5b50919050565b7f4552433732313a20617070726f76656420717565727920666f72206e6f6e657860008201527f697374656e7420746f6b656e0000000000000000000000000000000000000000602082015250565b600061345a602c836129f9565b9150613465826133fe565b604082019050919050565b600060208201905081810360008301526134898161344d565b9050919050565b7f4552433732313a20617070726f76616c20746f2063757272656e74206f776e6560008201527f7200000000000000000000000000000000000000000000000000000000000000602082015250565b60006134ec6021836129f9565b91506134f782613490565b604082019050919050565b6000602082019050818103600083015261351b816134df565b9050919050565b7f4552433732313a20617070726f76652063616c6c6572206973206e6f74206f7760008201527f6e6572206e6f7220617070726f76656420666f7220616c6c0000000000000000602082015250565b600061357e6038836129f9565b915061358982613522565b604082019050919050565b600060208201905081810360008301526135ad81613571565b9050919050565b7f50726f76696465206d6f7265207468616e206f6e65207061727420746f20617360008201527f73656d626c650000000000000000000000000000000000000000000000000000602082015250565b60006136106026836129f9565b915061361b826135b4565b604082019050919050565b6000602082019050818103600083015261363f81613603565b9050919050565b7f546f6f206d616e792070617274732070726f7669646564000000000000000000600082015250565b600061367c6017836129f9565b915061368782613646565b602082019050919050565b600060208201905081810360008301526136ab8161366f565b9050919050565b7f4e487b7100000000000000000000000000000000000000000000000000000000600052603260045260246000fd5b7f416c6c20746865207061727473206d7573742068617665207468652073616d6560008201527f206f776e65720000000000000000000000000000000000000000000000000000602082015250565b600061373d6026836129f9565b9150613748826136e1565b604082019050919050565b6000602082019050818103600083015261376c81613730565b9050919050565b7f4e487b7100000000000000000000000000000000000000000000000000000000600052601160045260246000fd5b600060ff82169050919050565b60006137ba826137a2565b915060ff8214156137ce576137cd613773565b5b600182019050919050565b7f4552433732313a207472616e736665722063616c6c6572206973206e6f74206f60008201527f776e6572206e6f7220617070726f766564000000000000000000000000000000602082015250565b60006138356031836129f9565b9150613840826137d9565b604082019050919050565b6000602082019050818103600083015261386481613828565b9050919050565b7f546f6f206d616e79206368696c6472656e000000000000000000000000000000600082015250565b60006138a16011836129f9565b91506138ac8261386b565b602082019050919050565b600060208201905081810360008301526138d081613894565b9050919050565b7f417373656d626c7920616e642070617274206f776e657220646f6e2774206d6160008201527f7463680000000000000000000000000000000000000000000000000000000000602082015250565b60006139336023836129f9565b915061393e826138d7565b604082019050919050565b6000602082019050818103600083015261396281613926565b9050919050565b7f4e6f7420617574686f72697a656420746f2061646420746f20617373656d626c60008201527f7900000000000000000000000000000000000000000000000000000000000000602082015250565b60006139c56021836129f9565b91506139d082613969565b604082019050919050565b600060208201905081810360008301526139f4816139b8565b9050919050565b7f43616e6e6f7420646973617373656d626c6520636f6e73747261696e6564207060008201527f6172740000000000000000000000000000000000000000000000000000000000602082015250565b6000613a576023836129f9565b9150613a62826139fb565b604082019050919050565b60006020820190508181036000830152613a8681613a4a565b9050919050565b7f4552433732313a206f776e657220717565727920666f72206e6f6e657869737460008201527f656e7420746f6b656e0000000000000000000000000000000000000000000000602082015250565b6000613ae96029836129f9565b9150613af482613a8d565b604082019050919050565b60006020820190508181036000830152613b1881613adc565b9050919050565b7f4e6f7420617574686f72697a656420746f2072656d6f76652066726f6d20617360008201527f73656d626c790000000000000000000000000000000000000000000000000000602082015250565b6000613b7b6026836129f9565b9150613b8682613b1f565b604082019050919050565b60006020820190508181036000830152613baa81613b6e565b9050919050565b7f43616c6c20646973617373656d626c6550617274282920696e73746561640000600082015250565b6000613be7601e836129f9565b9150613bf282613bb1565b602082019050919050565b60006020820190508181036000830152613c1681613bda565b9050919050565b6000613c2882612aa9565b9150613c3383612aa9565b925082821015613c4657613c45613773565b5b828203905092915050565b7f4e487b7100000000000000000000000000000000000000000000000000000000600052603160045260246000fd5b7f50617274206e6f7420666f756e64206f6e20746865206c697374206f6620636860008201527f696c6472656e0000000000000000000000000000000000000000000000000000602082015250565b6000613cdc6026836129f9565b9150613ce782613c80565b604082019050919050565b60006020820190508181036000830152613d0b81613ccf565b9050919050565b7f4552433732313a2062616c616e636520717565727920666f7220746865207a6560008201527f726f206164647265737300000000000000000000000000000000000000000000602082015250565b6000613d6e602a836129f9565b9150613d7982613d12565b604082019050919050565b60006020820190508181036000830152613d9d81613d61565b9050919050565b7f4552433732314d657461646174613a2055524920717565727920666f72206e6f60008201527f6e6578697374656e7420746f6b656e0000000000000000000000000000000000602082015250565b6000613e00602f836129f9565b9150613e0b82613da4565b604082019050919050565b60006020820190508181036000830152613e2f81613df3565b9050919050565b600081905092915050565b6000613e4c826129ee565b613e568185613e36565b9350613e66818560208601612a0a565b80840191505092915050565b6000613e7e8285613e41565b9150613e8a8284613e41565b91508190509392505050565b7f50617274206e756d6265722073686f756c646e27742062652030000000000000600082015250565b6000613ecc601a836129f9565b9150613ed782613e96565b602082019050919050565b60006020820190508181036000830152613efb81613ebf565b9050919050565b7f41737369676e2061206e616d6520666f7220746865206e657720706172740000600082015250565b6000613f38601e836129f9565b9150613f4382613f02565b602082019050919050565b60006020820190508181036000830152613f6781613f2b565b9050919050565b7f41737369676e2061206d616e75666163747572657220666f7220746865206e6560008201527f7720706172740000000000000000000000000000000000000000000000000000602082015250565b6000613fca6026836129f9565b9150613fd582613f6e565b604082019050919050565b60006020820190508181036000830152613ff981613fbd565b9050919050565b7f4e6f7420617574686f72697a656420746f2070726f636573732074686973207060008201527f6172740000000000000000000000000000000000000000000000000000000000602082015250565b600061405c6023836129f9565b915061406782614000565b604082019050919050565b6000602082019050818103600083015261408b8161404f565b9050919050565b7f5061727420636f6e73747261696e656400000000000000000000000000000000600082015250565b60006140c86010836129f9565b91506140d382614092565b602082019050919050565b600060208201905081810360008301526140f7816140bb565b9050919050565b7f4552433732313a206f70657261746f7220717565727920666f72206e6f6e657860008201527f697374656e7420746f6b656e0000000000000000000000000000000000000000602082015250565b600061415a602c836129f9565b9150614165826140fe565b604082019050919050565b600060208201905081810360008301526141898161414d565b9050919050565b7f4552433732313a207472616e73666572206f6620746f6b656e2074686174206960008201527f73206e6f74206f776e0000000000000000000000000000000000000000000000602082015250565b60006141ec6029836129f9565b91506141f782614190565b604082019050919050565b6000602082019050818103600083015261421b816141df565b9050919050565b7f4552433732313a207472616e7366657220746f20746865207a65726f2061646460008201527f7265737300000000000000000000000000000000000000000000000000000000602082015250565b600061427e6024836129f9565b915061428982614222565b604082019050919050565b600060208201905081810360008301526142ad81614271565b9050919050565b60006142bf82612aa9565b91506142ca83612aa9565b9250827fffffffffffffffffffffffffffffffffffffffffffffffffffffffffffffffff038211156142ff576142fe613773565b5b828201905092915050565b7f4552433732313a20617070726f766520746f2063616c6c657200000000000000600082015250565b60006143406019836129f9565b915061434b8261430a565b602082019050919050565b6000602082019050818103600083015261436f81614333565b9050919050565b7f4552433732313a207472616e7366657220746f206e6f6e20455243373231526560008201527f63656976657220696d706c656d656e7465720000000000000000000000000000602082015250565b60006143d26032836129f9565b91506143dd82614376565b604082019050919050565b60006020820190508181036000830152614401816143c5565b9050919050565b600061441382612aa9565b91507fffffffffffffffffffffffffffffffffffffffffffffffffffffffffffffffff82141561444657614445613773565b5b600182019050919050565b7f4e487b7100000000000000000000000000000000000000000000000000000000600052601260045260246000fd5b600061448b82612aa9565b915061449683612aa9565b9250826144a6576144a5614451565b5b828204905092915050565b60006144bc82612aa9565b91506144c783612aa9565b9250826144d7576144d6614451565b5b828206905092915050565b7f4552433732313a206d696e7420746f20746865207a65726f2061646472657373600082015250565b60006145186020836129f9565b9150614523826144e2565b602082019050919050565b600060208201905081810360008301526145478161450b565b9050919050565b7f4552433732313a20746f6b656e20616c7265616479206d696e74656400000000600082015250565b6000614584601c836129f9565b915061458f8261454e565b602082019050919050565b600060208201905081810360008301526145b381614577565b9050919050565b7f43616e6e6f74207472616e7366657220636f6e73747261696e65642070617274600082015250565b60006145f06020836129f9565b91506145fb826145ba565b602082019050919050565b6000602082019050818103600083015261461f816145e3565b9050919050565b600081519050919050565b600082825260208201905092915050565b600061464d82614626565b6146578185614631565b9350614667818560208601612a0a565b61467081612a3d565b840191505092915050565b60006080820190506146906000830187612b3e565b61469d6020830186612b3e565b6146aa6040830185612e8c565b81810360608301526146bc8184614642565b905095945050505050565b6000815190506146d68161295f565b92915050565b6000602082840312156146f2576146f1612929565b5b6000614700848285016146c7565b9150509291505056fea2646970667358221220c2ae88be0e71a13f82ac50eb9082cc2f68e92eaca9b332de6357d21f98a5e4ec64736f6c634300080a0033",
  "immutableReferences": {},
  "source": "// SPDX-License-Identifier: MIT\r\n\r\npragma solidity ^0.8.0;\r\n\r\nimport \"@openzeppelin/contracts/token/ERC721/ERC721.sol\";\r\nimport \"@openzeppelin/contracts/utils/Counters.sol\";\r\n\r\n// transferring all children with parent\r\n\r\ncontract PartsFactory is ERC721 {\r\n    enum AssemblyStatus {DISASSEMBLED, ASSEMBLED}\r\n\r\n    struct Part {\r\n        uint256 partNumber;\r\n        string name;\r\n        string manufacturer;\r\n        AssemblyStatus status;\r\n        uint256 parentPartId;\r\n        uint256[] childrenPartId;  \r\n    }\r\n\r\n    struct TransferHelper {\r\n        bool inTransfer;\r\n        uint256 parentPartId;\r\n    }\r\n    using Counters for Counters.Counter;\r\n    Counters.Counter private partsCounter;\r\n    mapping(uint256 => Part) public parts;\r\n    TransferHelper transferHelper;\r\n\r\n    constructor(string memory _name, string memory _symbol) ERC721(_name, _symbol) {}\r\n\r\n    function requirePartAuthAndDisassembled(uint256 partId) private view {\r\n        require(_isApprovedOrOwner(msg.sender, partId), \"Not authorized to process this part\");       \r\n        require(parts[partId].status == AssemblyStatus.DISASSEMBLED, \"Part constrained\");\r\n    }\r\n\r\n    function mintSinglePart(\r\n        address _owner,\r\n        uint256 _partNumber,\r\n        string memory _name,\r\n        string memory _manufacturer\r\n    )   public\r\n        returns (uint256)\r\n    {\r\n        require(_partNumber != 0, \"Part number shouldn't be 0\");\r\n        require(bytes(_name).length > 0, \"Assign a name for the new part\");\r\n        require(bytes(_manufacturer).length > 0, \"Assign a manufacturer for the new part\");\r\n\r\n        Part memory part = Part({\r\n            partNumber: _partNumber,\r\n            name: _name,\r\n            manufacturer: _manufacturer,\r\n            status: AssemblyStatus.DISASSEMBLED,\r\n            parentPartId: 0,\r\n            childrenPartId: new uint[](0)\r\n        });\r\n\r\n        partsCounter.increment();\r\n        uint256 partId = partsCounter.current();\r\n        parts[partId] = part;\r\n        _mint(_owner, partId);\r\n\r\n        return partId;\r\n    }\r\n\r\n    function assembleParts(\r\n        uint256 _newPartNumber,\r\n        string memory _newPartName,\r\n        string memory _newPartManufacturer,\r\n        uint256[] memory _partIds\r\n    )   public \r\n        returns (uint256) {\r\n        require(_partIds.length > 1, \"Provide more than one part to assemble\");\r\n        require(_partIds.length <= 10, \"Too many parts provided\");\r\n\r\n        address prevOwner;\r\n        for(uint8 i = 0; i < _partIds.length; i++) {\r\n            address owner = ownerOf(_partIds[i]);\r\n            require(owner == prevOwner || \r\n                    prevOwner == address(0), \r\n                    \"All the parts must have the same owner\");\r\n\r\n            requirePartAuthAndDisassembled(_partIds[i]);\r\n            prevOwner = owner;\r\n        }\r\n\r\n        uint256 newPartId = mintSinglePart(prevOwner, _newPartNumber, _newPartName, _newPartManufacturer);\r\n        parts[newPartId].childrenPartId = _partIds;\r\n\r\n        for(uint8 i = 0; i < _partIds.length; i++) {\r\n            parts[_partIds[i]].status = AssemblyStatus.ASSEMBLED;\r\n            parts[_partIds[i]].parentPartId = newPartId;\r\n        }\r\n\r\n        return newPartId;\r\n    }\r\n\r\n    function disassemblePart(\r\n        uint256 _partId\r\n    )   public \r\n        returns (uint256[] memory) {\r\n        require(parts[_partId].childrenPartId.length > 0, \"Cannot disassemble constrained part\");\r\n        requirePartAuthAndDisassembled(_partId);\r\n\r\n        uint256 length = parts[_partId].childrenPartId.length;\r\n        uint256[] memory disassembledPartIds = new uint256[](length);\r\n        for(uint8 i = 0; i < length; i++) {\r\n            disassembledPartIds[i] = parts[_partId].childrenPartId[i];\r\n            parts[parts[_partId].childrenPartId[i]].status = AssemblyStatus.DISASSEMBLED;\r\n            parts[parts[_partId].childrenPartId[i]].parentPartId = 0;\r\n        }\r\n\r\n        _burn(_partId);\r\n        delete parts[_partId];\r\n        return disassembledPartIds;\r\n    }\r\n\r\n    function addToAssembly(\r\n        uint256 _assemblyPartId,\r\n        uint256 _partId\r\n    )   public {\r\n        require(parts[_assemblyPartId].childrenPartId.length < 10, \"Too many children\");\r\n        require(ownerOf(_assemblyPartId) == ownerOf(_partId), \"Assembly and part owner don't match\");\r\n        require(_isApprovedOrOwner(msg.sender, _assemblyPartId), \"Not authorized to add to assembly\");  \r\n        requirePartAuthAndDisassembled(_partId);\r\n\r\n        parts[_assemblyPartId].childrenPartId.push(_partId);\r\n        parts[_partId].status = AssemblyStatus.ASSEMBLED;\r\n        parts[_partId].parentPartId = _assemblyPartId;\r\n    }\r\n\r\n    function removeFromAssembly(\r\n        uint256 _assemblyPartId,\r\n        uint256 _partId\r\n    )   public {\r\n        require(_isApprovedOrOwner(msg.sender, _assemblyPartId), \"Not authorized to remove from assembly\");  \r\n        require(parts[_partId].childrenPartId.length > 2, \"Call disassemblePart() instead\");\r\n\r\n        bool found;\r\n        uint256 length = parts[_assemblyPartId].childrenPartId.length;\r\n        for(uint8 i = 0; i < length; i++) {\r\n            if(parts[_assemblyPartId].childrenPartId[i] == _partId) {\r\n                found = true;\r\n                parts[_assemblyPartId].childrenPartId[i] = parts[_assemblyPartId].childrenPartId[length - 1];\r\n                parts[_assemblyPartId].childrenPartId.pop();\r\n                parts[_partId].status = AssemblyStatus.DISASSEMBLED;\r\n                parts[_partId].parentPartId = 0;\r\n                break;\r\n            }\r\n        }\r\n        require(found, \"Part not found on the list of children\");\r\n    }\r\n\r\n    function _beforeTokenTransfer(\r\n        address from,\r\n        address to,\r\n        uint256 tokenId\r\n    )   internal override {\r\n        if(from == address(0) || to == address(0)) {\r\n            return;\r\n        } else if(!transferHelper.inTransfer) {\r\n            require(parts[tokenId].status == AssemblyStatus.DISASSEMBLED, \"Cannot transfer constrained part\");\r\n            transferHelper.inTransfer = true;\r\n            transferHelper.parentPartId = tokenId;\r\n        }\r\n\r\n        // recursive transfer of all the children along with a parent\r\n        uint256 length = parts[tokenId].childrenPartId.length;\r\n        for(uint8 i = 0; i < length; i++) {\r\n            _transfer(from, to, parts[tokenId].childrenPartId[i]);\r\n        }\r\n\r\n        if(tokenId == transferHelper.parentPartId) {\r\n            transferHelper.inTransfer = false;\r\n        }\r\n    }\r\n}\r\n",
  "sourcePath": "C:\\Users\\kaspe\\Documents\\GBC_Blockchain_Development\\Smart_Contracts_Development_Essentials\\ERC-721-Assigment\\contracts\\PartsFactory.sol",
  "compiler": {
    "name": "solc",
    "version": "0.8.10+commit.fc410830.Emscripten.clang"
  },
  "schemaVersion": "3.4.3",
  "updatedAt": "2021-11-26T16:55:38.723Z",
  "devdoc": {
    "kind": "dev",
    "methods": {
      "approve(address,uint256)": {
        "details": "See {IERC721-approve}."
      },
      "balanceOf(address)": {
        "details": "See {IERC721-balanceOf}."
      },
      "getApproved(uint256)": {
        "details": "See {IERC721-getApproved}."
      },
      "isApprovedForAll(address,address)": {
        "details": "See {IERC721-isApprovedForAll}."
      },
      "name()": {
        "details": "See {IERC721Metadata-name}."
      },
      "ownerOf(uint256)": {
        "details": "See {IERC721-ownerOf}."
      },
      "safeTransferFrom(address,address,uint256)": {
        "details": "See {IERC721-safeTransferFrom}."
      },
      "safeTransferFrom(address,address,uint256,bytes)": {
        "details": "See {IERC721-safeTransferFrom}."
      },
      "setApprovalForAll(address,bool)": {
        "details": "See {IERC721-setApprovalForAll}."
      },
      "supportsInterface(bytes4)": {
        "details": "See {IERC165-supportsInterface}."
      },
      "symbol()": {
        "details": "See {IERC721Metadata-symbol}."
      },
      "tokenURI(uint256)": {
        "details": "See {IERC721Metadata-tokenURI}."
      },
      "transferFrom(address,address,uint256)": {
        "details": "See {IERC721-transferFrom}."
      }
    },
    "version": 1
  },
  "userdoc": {
    "kind": "user",
    "methods": {},
    "version": 1
  }
}