{
  "contractName": "PartsFactory",
  "abi": [
    {
      "inputs": [
        {
          "internalType": "string",
          "name": "_name",
          "type": "string"
        },
        {
          "internalType": "string",
          "name": "_symbol",
          "type": "string"
        }
      ],
      "stateMutability": "nonpayable",
      "type": "constructor"
    },
    {
      "anonymous": false,
      "inputs": [
        {
          "indexed": true,
          "internalType": "address",
          "name": "owner",
          "type": "address"
        },
        {
          "indexed": true,
          "internalType": "address",
          "name": "approved",
          "type": "address"
        },
        {
          "indexed": true,
          "internalType": "uint256",
          "name": "tokenId",
          "type": "uint256"
        }
      ],
      "name": "Approval",
      "type": "event"
    },
    {
      "anonymous": false,
      "inputs": [
        {
          "indexed": true,
          "internalType": "address",
          "name": "owner",
          "type": "address"
        },
        {
          "indexed": true,
          "internalType": "address",
          "name": "operator",
          "type": "address"
        },
        {
          "indexed": false,
          "internalType": "bool",
          "name": "approved",
          "type": "bool"
        }
      ],
      "name": "ApprovalForAll",
      "type": "event"
    },
    {
      "anonymous": false,
      "inputs": [
        {
          "indexed": true,
          "internalType": "address",
          "name": "from",
          "type": "address"
        },
        {
          "indexed": true,
          "internalType": "address",
          "name": "to",
          "type": "address"
        },
        {
          "indexed": true,
          "internalType": "uint256",
          "name": "tokenId",
          "type": "uint256"
        }
      ],
      "name": "Transfer",
      "type": "event"
    },
    {
      "anonymous": false,
      "inputs": [
        {
          "indexed": true,
          "internalType": "address",
          "name": "_owner",
          "type": "address"
        },
        {
          "indexed": true,
          "internalType": "uint256",
          "name": "_partNumber",
          "type": "uint256"
        },
        {
          "indexed": true,
          "internalType": "uint256",
          "name": "_partId",
          "type": "uint256"
        }
      ],
      "name": "newPart",
      "type": "event"
    },
    {
      "anonymous": false,
      "inputs": [
        {
          "indexed": true,
          "internalType": "address",
          "name": "_owner",
          "type": "address"
        },
        {
          "indexed": true,
          "internalType": "uint256",
          "name": "_parentPartId",
          "type": "uint256"
        },
        {
          "indexed": true,
          "internalType": "uint256",
          "name": "_partId",
          "type": "uint256"
        }
      ],
      "name": "partAddedToAssembly",
      "type": "event"
    },
    {
      "anonymous": false,
      "inputs": [
        {
          "indexed": true,
          "internalType": "address",
          "name": "_owner",
          "type": "address"
        },
        {
          "indexed": true,
          "internalType": "uint256",
          "name": "_partNumber",
          "type": "uint256"
        },
        {
          "indexed": true,
          "internalType": "uint256",
          "name": "_partId",
          "type": "uint256"
        }
      ],
      "name": "partAssembled",
      "type": "event"
    },
    {
      "anonymous": false,
      "inputs": [
        {
          "indexed": true,
          "internalType": "address",
          "name": "_owner",
          "type": "address"
        },
        {
          "indexed": true,
          "internalType": "uint256",
          "name": "_partNumber",
          "type": "uint256"
        },
        {
          "indexed": true,
          "internalType": "uint256",
          "name": "_partId",
          "type": "uint256"
        }
      ],
      "name": "partDisassembled",
      "type": "event"
    },
    {
      "anonymous": false,
      "inputs": [
        {
          "indexed": true,
          "internalType": "address",
          "name": "_owner",
          "type": "address"
        },
        {
          "indexed": true,
          "internalType": "uint256",
          "name": "_parentPartId",
          "type": "uint256"
        },
        {
          "indexed": true,
          "internalType": "uint256",
          "name": "_partId",
          "type": "uint256"
        }
      ],
      "name": "partRemovedFromAssembly",
      "type": "event"
    },
    {
      "inputs": [
        {
          "internalType": "address",
          "name": "to",
          "type": "address"
        },
        {
          "internalType": "uint256",
          "name": "tokenId",
          "type": "uint256"
        }
      ],
      "name": "approve",
      "outputs": [],
      "stateMutability": "nonpayable",
      "type": "function"
    },
    {
      "inputs": [
        {
          "internalType": "address",
          "name": "owner",
          "type": "address"
        }
      ],
      "name": "balanceOf",
      "outputs": [
        {
          "internalType": "uint256",
          "name": "",
          "type": "uint256"
        }
      ],
      "stateMutability": "view",
      "type": "function"
    },
    {
      "inputs": [
        {
          "internalType": "uint256",
          "name": "tokenId",
          "type": "uint256"
        }
      ],
      "name": "getApproved",
      "outputs": [
        {
          "internalType": "address",
          "name": "",
          "type": "address"
        }
      ],
      "stateMutability": "view",
      "type": "function"
    },
    {
      "inputs": [
        {
          "internalType": "address",
          "name": "owner",
          "type": "address"
        },
        {
          "internalType": "address",
          "name": "operator",
          "type": "address"
        }
      ],
      "name": "isApprovedForAll",
      "outputs": [
        {
          "internalType": "bool",
          "name": "",
          "type": "bool"
        }
      ],
      "stateMutability": "view",
      "type": "function"
    },
    {
      "inputs": [],
      "name": "name",
      "outputs": [
        {
          "internalType": "string",
          "name": "",
          "type": "string"
        }
      ],
      "stateMutability": "view",
      "type": "function"
    },
    {
      "inputs": [
        {
          "internalType": "uint256",
          "name": "tokenId",
          "type": "uint256"
        }
      ],
      "name": "ownerOf",
      "outputs": [
        {
          "internalType": "address",
          "name": "",
          "type": "address"
        }
      ],
      "stateMutability": "view",
      "type": "function"
    },
    {
      "inputs": [
        {
          "internalType": "address",
          "name": "from",
          "type": "address"
        },
        {
          "internalType": "address",
          "name": "to",
          "type": "address"
        },
        {
          "internalType": "uint256",
          "name": "tokenId",
          "type": "uint256"
        }
      ],
      "name": "safeTransferFrom",
      "outputs": [],
      "stateMutability": "nonpayable",
      "type": "function"
    },
    {
      "inputs": [
        {
          "internalType": "address",
          "name": "from",
          "type": "address"
        },
        {
          "internalType": "address",
          "name": "to",
          "type": "address"
        },
        {
          "internalType": "uint256",
          "name": "tokenId",
          "type": "uint256"
        },
        {
          "internalType": "bytes",
          "name": "_data",
          "type": "bytes"
        }
      ],
      "name": "safeTransferFrom",
      "outputs": [],
      "stateMutability": "nonpayable",
      "type": "function"
    },
    {
      "inputs": [
        {
          "internalType": "address",
          "name": "operator",
          "type": "address"
        },
        {
          "internalType": "bool",
          "name": "approved",
          "type": "bool"
        }
      ],
      "name": "setApprovalForAll",
      "outputs": [],
      "stateMutability": "nonpayable",
      "type": "function"
    },
    {
      "inputs": [
        {
          "internalType": "bytes4",
          "name": "interfaceId",
          "type": "bytes4"
        }
      ],
      "name": "supportsInterface",
      "outputs": [
        {
          "internalType": "bool",
          "name": "",
          "type": "bool"
        }
      ],
      "stateMutability": "view",
      "type": "function"
    },
    {
      "inputs": [],
      "name": "symbol",
      "outputs": [
        {
          "internalType": "string",
          "name": "",
          "type": "string"
        }
      ],
      "stateMutability": "view",
      "type": "function"
    },
    {
      "inputs": [
        {
          "internalType": "uint256",
          "name": "tokenId",
          "type": "uint256"
        }
      ],
      "name": "tokenURI",
      "outputs": [
        {
          "internalType": "string",
          "name": "",
          "type": "string"
        }
      ],
      "stateMutability": "view",
      "type": "function"
    },
    {
      "inputs": [
        {
          "internalType": "address",
          "name": "from",
          "type": "address"
        },
        {
          "internalType": "address",
          "name": "to",
          "type": "address"
        },
        {
          "internalType": "uint256",
          "name": "tokenId",
          "type": "uint256"
        }
      ],
      "name": "transferFrom",
      "outputs": [],
      "stateMutability": "nonpayable",
      "type": "function"
    },
    {
      "inputs": [
        {
          "internalType": "uint256",
          "name": "_partId",
          "type": "uint256"
        }
      ],
      "name": "getPartProperties",
      "outputs": [
        {
          "internalType": "uint256",
          "name": "",
          "type": "uint256"
        },
        {
          "internalType": "string",
          "name": "",
          "type": "string"
        },
        {
          "internalType": "string",
          "name": "",
          "type": "string"
        }
      ],
      "stateMutability": "view",
      "type": "function"
    },
    {
      "inputs": [
        {
          "internalType": "uint256",
          "name": "_partId",
          "type": "uint256"
        }
      ],
      "name": "getPartRelations",
      "outputs": [
        {
          "internalType": "enum PartsFactory.AssemblyStatus",
          "name": "",
          "type": "uint8"
        },
        {
          "internalType": "uint256",
          "name": "",
          "type": "uint256"
        },
        {
          "internalType": "uint256[]",
          "name": "",
          "type": "uint256[]"
        }
      ],
      "stateMutability": "view",
      "type": "function"
    },
    {
      "inputs": [
        {
          "internalType": "address",
          "name": "_owner",
          "type": "address"
        },
        {
          "internalType": "uint256",
          "name": "_partNumber",
          "type": "uint256"
        },
        {
          "internalType": "string",
          "name": "_name",
          "type": "string"
        },
        {
          "internalType": "string",
          "name": "_manufacturer",
          "type": "string"
        }
      ],
      "name": "mintSinglePart",
      "outputs": [
        {
          "internalType": "uint256",
          "name": "",
          "type": "uint256"
        }
      ],
      "stateMutability": "nonpayable",
      "type": "function"
    },
    {
      "inputs": [
        {
          "internalType": "uint256",
          "name": "_newPartNumber",
          "type": "uint256"
        },
        {
          "internalType": "string",
          "name": "_newPartName",
          "type": "string"
        },
        {
          "internalType": "string",
          "name": "_newPartManufacturer",
          "type": "string"
        },
        {
          "internalType": "uint256[]",
          "name": "_partIds",
          "type": "uint256[]"
        }
      ],
      "name": "assembleParts",
      "outputs": [
        {
          "internalType": "uint256",
          "name": "",
          "type": "uint256"
        }
      ],
      "stateMutability": "nonpayable",
      "type": "function"
    },
    {
      "inputs": [
        {
          "internalType": "uint256",
          "name": "_partId",
          "type": "uint256"
        }
      ],
      "name": "disassemblePart",
      "outputs": [
        {
          "internalType": "uint256[]",
          "name": "",
          "type": "uint256[]"
        }
      ],
      "stateMutability": "nonpayable",
      "type": "function"
    },
    {
      "inputs": [
        {
          "internalType": "uint256",
          "name": "_assemblyPartId",
          "type": "uint256"
        },
        {
          "internalType": "uint256[]",
          "name": "_partIds",
          "type": "uint256[]"
        }
      ],
      "name": "addToAssembly",
      "outputs": [],
      "stateMutability": "nonpayable",
      "type": "function"
    },
    {
      "inputs": [
        {
          "internalType": "uint256",
          "name": "_assemblyPartId",
          "type": "uint256"
        },
        {
          "internalType": "uint256",
          "name": "_partId",
          "type": "uint256"
        }
      ],
      "name": "removeFromAssembly",
      "outputs": [
        {
          "internalType": "uint256[]",
          "name": "disassembledPartIds",
          "type": "uint256[]"
        }
      ],
      "stateMutability": "nonpayable",
      "type": "function"
    }
  ],
  "bytecode": "0x60806040523480156200001157600080fd5b50604051620056c5380380620056c58339818101604052810190620000379190620002c2565b818181600090805190602001906200005192919062000075565b5080600190805190602001906200006a92919062000075565b5050505050620003ac565b828054620000839062000376565b90600052602060002090601f016020900481019282620000a75760008555620000f3565b82601f10620000c257805160ff1916838001178555620000f3565b82800160010185558215620000f3579182015b82811115620000f2578251825591602001919060010190620000d5565b5b50905062000102919062000106565b5090565b5b808211156200012157600081600090555060010162000107565b5090565b6000604051905090565b600080fd5b600080fd5b600080fd5b600080fd5b6000601f19601f8301169050919050565b7f4e487b7100000000000000000000000000000000000000000000000000000000600052604160045260246000fd5b6200018e8262000143565b810181811067ffffffffffffffff82111715620001b057620001af62000154565b5b80604052505050565b6000620001c562000125565b9050620001d3828262000183565b919050565b600067ffffffffffffffff821115620001f657620001f562000154565b5b620002018262000143565b9050602081019050919050565b60005b838110156200022e57808201518184015260208101905062000211565b838111156200023e576000848401525b50505050565b60006200025b6200025584620001d8565b620001b9565b9050828152602081018484840111156200027a57620002796200013e565b5b620002878482856200020e565b509392505050565b600082601f830112620002a757620002a662000139565b5b8151620002b984826020860162000244565b91505092915050565b60008060408385031215620002dc57620002db6200012f565b5b600083015167ffffffffffffffff811115620002fd57620002fc62000134565b5b6200030b858286016200028f565b925050602083015167ffffffffffffffff8111156200032f576200032e62000134565b5b6200033d858286016200028f565b9150509250929050565b7f4e487b7100000000000000000000000000000000000000000000000000000000600052602260045260246000fd5b600060028204905060018216806200038f57607f821691505b60208210811415620003a657620003a562000347565b5b50919050565b61530980620003bc6000396000f3fe608060405234801561001057600080fd5b506004361061012c5760003560e01c806370a08231116100ad578063b5cb90f211610071578063b5cb90f214610391578063b88d4fde146103ad578063c87b56dd146103c9578063ccb52037146103f9578063e985e9c5146104295761012c565b806370a08231146102c357806380be9943146102f357806395d89b4114610325578063a22cb46514610343578063b052ea861461035f5761012c565b806323b872dd116100f457806323b872dd146101fb57806342842e0e1461021757806354fc223f146102335780636352211e146102635780636a2d90b6146102935761012c565b806301ffc9a71461013157806306fdde0314610161578063081812fc1461017f578063095ea7b3146101af5780631f565307146101cb575b600080fd5b61014b60048036038101906101469190613523565b610459565b604051610158919061356b565b60405180910390f35b61016961053b565b604051610176919061361f565b60405180910390f35b61019960048036038101906101949190613677565b6105cd565b6040516101a691906136e5565b60405180910390f35b6101c960048036038101906101c4919061372c565b610652565b005b6101e560048036038101906101e09190613969565b61076a565b6040516101f29190613a33565b60405180910390f35b61021560048036038101906102109190613a4e565b610bb6565b005b610231600480360381019061022c9190613a4e565b610c16565b005b61024d60048036038101906102489190613677565b610c36565b60405161025a9190613b5f565b60405180910390f35b61027d60048036038101906102789190613677565b610ff5565b60405161028a91906136e5565b60405180910390f35b6102ad60048036038101906102a89190613b81565b6110a7565b6040516102ba9190613b5f565b60405180910390f35b6102dd60048036038101906102d89190613bc1565b611738565b6040516102ea9190613a33565b60405180910390f35b61030d60048036038101906103089190613677565b6117f0565b60405161031c93929190613bee565b60405180910390f35b61032d61195d565b60405161033a919061361f565b60405180910390f35b61035d60048036038101906103589190613c5f565b6119ef565b005b61037960048036038101906103749190613677565b611a05565b60405161038893929190613d16565b60405180910390f35b6103ab60048036038101906103a69190613d54565b611aba565b005b6103c760048036038101906103c29190613e51565b6120aa565b005b6103e360048036038101906103de9190613677565b61210c565b6040516103f0919061361f565b60405180910390f35b610413600480360381019061040e9190613ed4565b6121b3565b6040516104209190613a33565b60405180910390f35b610443600480360381019061043e9190613f73565b612434565b604051610450919061356b565b60405180910390f35b60007f80ac58cd000000000000000000000000000000000000000000000000000000007bffffffffffffffffffffffffffffffffffffffffffffffffffffffff1916827bffffffffffffffffffffffffffffffffffffffffffffffffffffffff1916148061052457507f5b5e139f000000000000000000000000000000000000000000000000000000007bffffffffffffffffffffffffffffffffffffffffffffffffffffffff1916827bffffffffffffffffffffffffffffffffffffffffffffffffffffffff1916145b806105345750610533826124c8565b5b9050919050565b60606000805461054a90613fe2565b80601f016020809104026020016040519081016040528092919081815260200182805461057690613fe2565b80156105c35780601f10610598576101008083540402835291602001916105c3565b820191906000526020600020905b8154815290600101906020018083116105a657829003601f168201915b5050505050905090565b60006105d882612532565b610617576040517f08c379a000000000000000000000000000000000000000000000000000000000815260040161060e90614086565b60405180910390fd5b6004600083815260200190815260200160002060009054906101000a900473ffffffffffffffffffffffffffffffffffffffff169050919050565b600061065d82610ff5565b90508073ffffffffffffffffffffffffffffffffffffffff168373ffffffffffffffffffffffffffffffffffffffff1614156106ce576040517f08c379a00000000000000000000000000000000000000000000000000000000081526004016106c590614118565b60405180910390fd5b8073ffffffffffffffffffffffffffffffffffffffff166106ed61259e565b73ffffffffffffffffffffffffffffffffffffffff16148061071c575061071b8161071661259e565b612434565b5b61075b576040517f08c379a0000000000000000000000000000000000000000000000000000000008152600401610752906141aa565b60405180910390fd5b61076583836125a6565b505050565b60008160005b81518160ff1610156107f5576107a333838360ff1681518110610796576107956141ca565b5b602002602001015161265f565b6107e2576040517f08c379a00000000000000000000000000000000000000000000000000000000081526004016107d99061426b565b60405180910390fd5b80806107ed906142c7565b915050610770565b508260005b81518160ff1610156108c0576000600181111561081a57610819613c9f565b5b60076000848460ff1681518110610834576108336141ca565b5b6020026020010151815260200190815260200160002060030160009054906101000a900460ff16600181111561086d5761086c613c9f565b5b146108ad576040517f08c379a00000000000000000000000000000000000000000000000000000000081526004016108a49061433d565b60405180910390fd5b80806108b8906142c7565b9150506107fa565b5083600080600090505b82518160ff1610156109bc5760006108fe848360ff16815181106108f1576108f06141ca565b5b6020026020010151610ff5565b90508273ffffffffffffffffffffffffffffffffffffffff168173ffffffffffffffffffffffffffffffffffffffff1614806109665750600073ffffffffffffffffffffffffffffffffffffffff168373ffffffffffffffffffffffffffffffffffffffff16145b6109a5576040517f08c379a000000000000000000000000000000000000000000000000000000000815260040161099c906143cf565b60405180910390fd5b8092505080806109b4906142c7565b9150506108ca565b506001865111610a01576040517f08c379a00000000000000000000000000000000000000000000000000000000081526004016109f890614461565b60405180910390fd5b600a86511115610a46576040517f08c379a0000000000000000000000000000000000000000000000000000000008152600401610a3d906144cd565b60405180910390fd5b6000610a6c87600081518110610a5f57610a5e6141ca565b5b6020026020010151610ff5565b90506000610a7c828c8c8c6121b3565b905087600760008381526020019081526020016000206005019080519060200190610aa8929190613366565b5060005b88518160ff161015610b5f576001600760008b8460ff1681518110610ad457610ad36141ca565b5b6020026020010151815260200190815260200160002060030160006101000a81548160ff02191690836001811115610b0f57610b0e613c9f565b5b021790555081600760008b8460ff1681518110610b2f57610b2e6141ca565b5b60200260200101518152602001908152602001600020600401819055508080610b57906142c7565b915050610aac565b50808b8373ffffffffffffffffffffffffffffffffffffffff167f902e23a5df9d997fc60b7867f25b53923382ae3e9f27e986f234f984c9357d1260405160405180910390a4809650505050505050949350505050565b610bc7610bc161259e565b8261265f565b610c06576040517f08c379a0000000000000000000000000000000000000000000000000000000008152600401610bfd9061455f565b60405180910390fd5b610c1183838361273d565b505050565b610c31838383604051806020016040528060008152506120aa565b505050565b606081610c43338261265f565b610c82576040517f08c379a0000000000000000000000000000000000000000000000000000000008152600401610c79906145cb565b60405180910390fd5b8260006001811115610c9757610c96613c9f565b5b6007600083815260200190815260200160002060030160009054906101000a900460ff166001811115610ccd57610ccc613c9f565b5b14610d0d576040517f08c379a0000000000000000000000000000000000000000000000000000000008152600401610d0490614637565b60405180910390fd5b6000600760008681526020019081526020016000206005018054905011610d69576040517f08c379a0000000000000000000000000000000000000000000000000000000008152600401610d60906146a3565b60405180910390fd5b60006007600086815260200190815260200160002060050180549050905060008167ffffffffffffffff811115610da357610da2613776565b5b604051908082528060200260200182016040528015610dd15781602001602082028036833780820191505090505b50905060005b828160ff161015610f1257600760008881526020019081526020016000206005018160ff1681548110610e0d57610e0c6141ca565b5b9060005260206000200154828260ff1681518110610e2e57610e2d6141ca565b5b602002602001018181525050600060076000600760008b81526020019081526020016000206005018460ff1681548110610e6b57610e6a6141ca565b5b9060005260206000200154815260200190815260200160002060030160006101000a81548160ff02191690836001811115610ea957610ea8613c9f565b5b0217905550600060076000600760008b81526020019081526020016000206005018460ff1681548110610edf57610ede6141ca565b5b90600052602060002001548152602001908152602001600020600401819055508080610f0a906142c7565b915050610dd7565b50856007600088815260200190815260200160002060000154610f3488610ff5565b73ffffffffffffffffffffffffffffffffffffffff167f8b0752a7f68a87cd2aa39e5f2f0300d18c0641b1661eeac41b2c29118592188c60405160405180910390a4610f7f86612999565b60076000878152602001908152602001600020600080820160009055600182016000610fab91906133b3565b600282016000610fbb91906133b3565b6003820160006101000a81549060ff02191690556004820160009055600582016000610fe791906133f3565b505080945050505050919050565b6000806002600084815260200190815260200160002060009054906101000a900473ffffffffffffffffffffffffffffffffffffffff169050600073ffffffffffffffffffffffffffffffffffffffff168173ffffffffffffffffffffffffffffffffffffffff16141561109e576040517f08c379a000000000000000000000000000000000000000000000000000000000815260040161109590614735565b60405180910390fd5b80915050919050565b6060816110b4338261265f565b6110f3576040517f08c379a00000000000000000000000000000000000000000000000000000000081526004016110ea906145cb565b60405180910390fd5b836110fe338261265f565b61113d576040517f08c379a0000000000000000000000000000000000000000000000000000000008152600401611134906145cb565b60405180910390fd5b846000600181111561115257611151613c9f565b5b6007600083815260200190815260200160002060030160009054906101000a900460ff16600181111561118857611187613c9f565b5b146111c8576040517f08c379a00000000000000000000000000000000000000000000000000000000081526004016111bf90614637565b60405180910390fd5b600080600760008981526020019081526020016000206005018054905090506002600760008a81526020019081526020016000206005018054905014156114805760005b818160ff1610156112705787600760008b81526020019081526020016000206005018260ff1681548110611243576112426141ca565b5b9060005260206000200154141561125d5760019250611270565b8080611268906142c7565b91505061120c565b50811561147b578067ffffffffffffffff81111561129157611290613776565b5b6040519080825280602002602001820160405280156112bf5781602001602082028036833780820191505090505b50955060005b818160ff16101561140057600760008a81526020019081526020016000206005018160ff16815481106112fb576112fa6141ca565b5b9060005260206000200154878260ff168151811061131c5761131b6141ca565b5b602002602001018181525050600060076000600760008d81526020019081526020016000206005018460ff1681548110611359576113586141ca565b5b9060005260206000200154815260200190815260200160002060030160006101000a81548160ff0219169083600181111561139757611396613c9f565b5b0217905550600060076000600760008d81526020019081526020016000206005018460ff16815481106113cd576113cc6141ca565b5b906000526020600020015481526020019081526020016000206004018190555080806113f8906142c7565b9150506112c5565b5061140a88612999565b6007600089815260200190815260200160002060008082016000905560018201600061143691906133b3565b60028201600061144691906133b3565b6003820160006101000a81549060ff0219169055600482016000905560058201600061147291906133f3565b5050505061172f565b61169f565b8067ffffffffffffffff81111561149a57611499613776565b5b6040519080825280602002602001820160405280156114c85781602001602082028036833780820191505090505b50955060005b818160ff1610156116975787600760008b81526020019081526020016000206005018260ff1681548110611505576115046141ca565b5b9060005260206000200154141561168457600760008a81526020019081526020016000206005018160ff1681548110611541576115406141ca565b5b9060005260206000200154876000815181106115605761155f6141ca565b5b60200260200101818152505060019250600760008a81526020019081526020016000206005016001836115939190614755565b815481106115a4576115a36141ca565b5b9060005260206000200154600760008b81526020019081526020016000206005018260ff16815481106115da576115d96141ca565b5b9060005260206000200181905550600760008a815260200190815260200160002060050180548061160e5761160d614789565b5b600190038181906000526020600020016000905590556000600760008a815260200190815260200160002060030160006101000a81548160ff0219169083600181111561165e5761165d613c9f565b5b02179055506000600760008a815260200190815260200160002060040181905550611697565b808061168f906142c7565b9150506114ce565b50505061172f565b816116df576040517f08c379a00000000000000000000000000000000000000000000000000000000081526004016116d69061482a565b60405180910390fd5b86886116ea8a610ff5565b73ffffffffffffffffffffffffffffffffffffffff167fd30f73d87e70cd0779a82420c6755329ac37230eea45e96cc46840e6b8a524c560405160405180910390a450505b50505092915050565b60008073ffffffffffffffffffffffffffffffffffffffff168273ffffffffffffffffffffffffffffffffffffffff1614156117a9576040517f08c379a00000000000000000000000000000000000000000000000000000000081526004016117a0906148bc565b60405180910390fd5b600360008373ffffffffffffffffffffffffffffffffffffffff1673ffffffffffffffffffffffffffffffffffffffff168152602001908152602001600020549050919050565b60006060806007600085815260200190815260200160002060000154600760008681526020019081526020016000206001016007600087815260200190815260200160002060020181805461184490613fe2565b80601f016020809104026020016040519081016040528092919081815260200182805461187090613fe2565b80156118bd5780601f10611892576101008083540402835291602001916118bd565b820191906000526020600020905b8154815290600101906020018083116118a057829003601f168201915b505050505091508080546118d090613fe2565b80601f01602080910402602001604051908101604052809291908181526020018280546118fc90613fe2565b80156119495780601f1061191e57610100808354040283529160200191611949565b820191906000526020600020905b81548152906001019060200180831161192c57829003601f168201915b505050505090509250925092509193909250565b60606001805461196c90613fe2565b80601f016020809104026020016040519081016040528092919081815260200182805461199890613fe2565b80156119e55780601f106119ba576101008083540402835291602001916119e5565b820191906000526020600020905b8154815290600101906020018083116119c857829003601f168201915b5050505050905090565b611a016119fa61259e565b8383612aaa565b5050565b60008060606007600085815260200190815260200160002060030160009054906101000a900460ff1660076000868152602001908152602001600020600401546007600087815260200190815260200160002060050180805480602002602001604051908101604052809291908181526020018280548015611aa657602002820191906000526020600020905b815481526020019060010190808311611a92575b505050505090509250925092509193909250565b8060005b81518160ff161015611b4357611af133838360ff1681518110611ae457611ae36141ca565b5b602002602001015161265f565b611b30576040517f08c379a0000000000000000000000000000000000000000000000000000000008152600401611b279061426b565b60405180910390fd5b8080611b3b906142c7565b915050611abe565b5082611b4f338261265f565b611b8e576040517f08c379a0000000000000000000000000000000000000000000000000000000008152600401611b85906145cb565b60405180910390fd5b8260005b81518160ff161015611c585760006001811115611bb257611bb1613c9f565b5b60076000848460ff1681518110611bcc57611bcb6141ca565b5b6020026020010151815260200190815260200160002060030160009054906101000a900460ff166001811115611c0557611c04613c9f565b5b14611c45576040517f08c379a0000000000000000000000000000000000000000000000000000000008152600401611c3c9061433d565b60405180910390fd5b8080611c50906142c7565b915050611b92565b508460006001811115611c6e57611c6d613c9f565b5b6007600083815260200190815260200160002060030160009054906101000a900460ff166001811115611ca457611ca3613c9f565b5b14611ce4576040517f08c379a0000000000000000000000000000000000000000000000000000000008152600401611cdb90614637565b60405180910390fd5b84600080600090505b82518160ff161015611ddf576000611d21848360ff1681518110611d1457611d136141ca565b5b6020026020010151610ff5565b90508273ffffffffffffffffffffffffffffffffffffffff168173ffffffffffffffffffffffffffffffffffffffff161480611d895750600073ffffffffffffffffffffffffffffffffffffffff168373ffffffffffffffffffffffffffffffffffffffff16145b611dc8576040517f08c379a0000000000000000000000000000000000000000000000000000000008152600401611dbf906143cf565b60405180910390fd5b809250508080611dd7906142c7565b915050611ced565b506000611deb89610ff5565b9050600188511015611e32576040517f08c379a0000000000000000000000000000000000000000000000000000000008152600401611e299061494e565b60405180910390fd5b600a8851600760008c815260200190815260200160002060050180549050611e5a919061496e565b1115611e9b576040517f08c379a0000000000000000000000000000000000000000000000000000000008152600401611e9290614a10565b60405180910390fd5b611ebf88600081518110611eb257611eb16141ca565b5b6020026020010151610ff5565b73ffffffffffffffffffffffffffffffffffffffff168173ffffffffffffffffffffffffffffffffffffffff1614611f2c576040517f08c379a0000000000000000000000000000000000000000000000000000000008152600401611f2390614aa2565b60405180910390fd5b60005b88518160ff16101561209e57600760008b8152602001908152602001600020600501898260ff1681518110611f6757611f666141ca565b5b602002602001015190806001815401808255809150506001900390600052602060002001600090919091909150556001600760008b8460ff1681518110611fb157611fb06141ca565b5b6020026020010151815260200190815260200160002060030160006101000a81548160ff02191690836001811115611fec57611feb613c9f565b5b021790555089600760008b8460ff168151811061200c5761200b6141ca565b5b6020026020010151815260200190815260200160002060040181905550888160ff168151811061203f5761203e6141ca565b5b60200260200101518a8373ffffffffffffffffffffffffffffffffffffffff167fb990520c5f20955d5ad86830db36220bd04c384734fec72da0aa62f7614e90b360405160405180910390a48080612096906142c7565b915050611f2f565b50505050505050505050565b6120bb6120b561259e565b8361265f565b6120fa576040517f08c379a00000000000000000000000000000000000000000000000000000000081526004016120f19061455f565b60405180910390fd5b61210684848484612c17565b50505050565b606061211782612532565b612156576040517f08c379a000000000000000000000000000000000000000000000000000000000815260040161214d90614b34565b60405180910390fd5b6000612160612c73565b9050600081511161218057604051806020016040528060008152506121ab565b8061218a84612c8a565b60405160200161219b929190614b90565b6040516020818303038152906040525b915050919050565b6000808414156121f8576040517f08c379a00000000000000000000000000000000000000000000000000000000081526004016121ef90614c00565b60405180910390fd5b600083511161223c576040517f08c379a000000000000000000000000000000000000000000000000000000000815260040161223390614c6c565b60405180910390fd5b6000825111612280576040517f08c379a000000000000000000000000000000000000000000000000000000000815260040161227790614cfe565b60405180910390fd5b60006040518060c00160405280868152602001858152602001848152602001600060018111156122b3576122b2613c9f565b5b815260200160008152602001600067ffffffffffffffff8111156122da576122d9613776565b5b6040519080825280602002602001820160405280156123085781602001602082028036833780820191505090505b5081525090506123186006612deb565b60006123246006612e01565b90508160076000838152602001908152602001600020600082015181600001556020820151816001019080519060200190612360929190613414565b50604082015181600201908051906020019061237d929190613414565b5060608201518160030160006101000a81548160ff021916908360018111156123a9576123a8613c9f565b5b02179055506080820151816004015560a08201518160050190805190602001906123d4929190613366565b509050506123e28782612e0f565b80868873ffffffffffffffffffffffffffffffffffffffff167f50d11956a7f023b358c2447c06f2e08948d754045ae8fdeb355da456724cc63160405160405180910390a48092505050949350505050565b6000600560008473ffffffffffffffffffffffffffffffffffffffff1673ffffffffffffffffffffffffffffffffffffffff16815260200190815260200160002060008373ffffffffffffffffffffffffffffffffffffffff1673ffffffffffffffffffffffffffffffffffffffff16815260200190815260200160002060009054906101000a900460ff16905092915050565b60007f01ffc9a7000000000000000000000000000000000000000000000000000000007bffffffffffffffffffffffffffffffffffffffffffffffffffffffff1916827bffffffffffffffffffffffffffffffffffffffffffffffffffffffff1916149050919050565b60008073ffffffffffffffffffffffffffffffffffffffff166002600084815260200190815260200160002060009054906101000a900473ffffffffffffffffffffffffffffffffffffffff1673ffffffffffffffffffffffffffffffffffffffff1614159050919050565b600033905090565b816004600083815260200190815260200160002060006101000a81548173ffffffffffffffffffffffffffffffffffffffff021916908373ffffffffffffffffffffffffffffffffffffffff160217905550808273ffffffffffffffffffffffffffffffffffffffff1661261983610ff5565b73ffffffffffffffffffffffffffffffffffffffff167f8c5be1e5ebec7d5bd14f71427d1e84f3dd0314c0f7b2291e5b200ac8c7c3b92560405160405180910390a45050565b600061266a82612532565b6126a9576040517f08c379a00000000000000000000000000000000000000000000000000000000081526004016126a090614d90565b60405180910390fd5b60006126b483610ff5565b90508073ffffffffffffffffffffffffffffffffffffffff168473ffffffffffffffffffffffffffffffffffffffff16148061272357508373ffffffffffffffffffffffffffffffffffffffff1661270b846105cd565b73ffffffffffffffffffffffffffffffffffffffff16145b8061273457506127338185612434565b5b91505092915050565b8273ffffffffffffffffffffffffffffffffffffffff1661275d82610ff5565b73ffffffffffffffffffffffffffffffffffffffff16146127b3576040517f08c379a00000000000000000000000000000000000000000000000000000000081526004016127aa90614e22565b60405180910390fd5b600073ffffffffffffffffffffffffffffffffffffffff168273ffffffffffffffffffffffffffffffffffffffff161415612823576040517f08c379a000000000000000000000000000000000000000000000000000000000815260040161281a90614eb4565b60405180910390fd5b61282e838383612fdd565b6128396000826125a6565b6001600360008573ffffffffffffffffffffffffffffffffffffffff1673ffffffffffffffffffffffffffffffffffffffff16815260200190815260200160002060008282546128899190614755565b925050819055506001600360008473ffffffffffffffffffffffffffffffffffffffff1673ffffffffffffffffffffffffffffffffffffffff16815260200190815260200160002060008282546128e0919061496e565b92505081905550816002600083815260200190815260200160002060006101000a81548173ffffffffffffffffffffffffffffffffffffffff021916908373ffffffffffffffffffffffffffffffffffffffff160217905550808273ffffffffffffffffffffffffffffffffffffffff168473ffffffffffffffffffffffffffffffffffffffff167fddf252ad1be2c89b69c2b068fc378daa952ba7f163c4a11628f55a4df523b3ef60405160405180910390a4505050565b60006129a482610ff5565b90506129b281600084612fdd565b6129bd6000836125a6565b6001600360008373ffffffffffffffffffffffffffffffffffffffff1673ffffffffffffffffffffffffffffffffffffffff1681526020019081526020016000206000828254612a0d9190614755565b925050819055506002600083815260200190815260200160002060006101000a81549073ffffffffffffffffffffffffffffffffffffffff021916905581600073ffffffffffffffffffffffffffffffffffffffff168273ffffffffffffffffffffffffffffffffffffffff167fddf252ad1be2c89b69c2b068fc378daa952ba7f163c4a11628f55a4df523b3ef60405160405180910390a45050565b8173ffffffffffffffffffffffffffffffffffffffff168373ffffffffffffffffffffffffffffffffffffffff161415612b19576040517f08c379a0000000000000000000000000000000000000000000000000000000008152600401612b1090614f20565b60405180910390fd5b80600560008573ffffffffffffffffffffffffffffffffffffffff1673ffffffffffffffffffffffffffffffffffffffff16815260200190815260200160002060008473ffffffffffffffffffffffffffffffffffffffff1673ffffffffffffffffffffffffffffffffffffffff16815260200190815260200160002060006101000a81548160ff0219169083151502179055508173ffffffffffffffffffffffffffffffffffffffff168373ffffffffffffffffffffffffffffffffffffffff167f17307eab39ab6107e8899845ad3d59bd9653f200f220920489ca2b5937696c3183604051612c0a919061356b565b60405180910390a3505050565b612c2284848461273d565b612c2e848484846131cb565b612c6d576040517f08c379a0000000000000000000000000000000000000000000000000000000008152600401612c6490614fb2565b60405180910390fd5b50505050565b606060405180602001604052806000815250905090565b60606000821415612cd2576040518060400160405280600181526020017f30000000000000000000000000000000000000000000000000000000000000008152509050612de6565b600082905060005b60008214612d04578080612ced90614fd2565b915050600a82612cfd919061504a565b9150612cda565b60008167ffffffffffffffff811115612d2057612d1f613776565b5b6040519080825280601f01601f191660200182016040528015612d525781602001600182028036833780820191505090505b5090505b60008514612ddf57600182612d6b9190614755565b9150600a85612d7a919061507b565b6030612d86919061496e565b60f81b818381518110612d9c57612d9b6141ca565b5b60200101907effffffffffffffffffffffffffffffffffffffffffffffffffffffffffffff1916908160001a905350600a85612dd8919061504a565b9450612d56565b8093505050505b919050565b6001816000016000828254019250508190555050565b600081600001549050919050565b600073ffffffffffffffffffffffffffffffffffffffff168273ffffffffffffffffffffffffffffffffffffffff161415612e7f576040517f08c379a0000000000000000000000000000000000000000000000000000000008152600401612e76906150f8565b60405180910390fd5b612e8881612532565b15612ec8576040517f08c379a0000000000000000000000000000000000000000000000000000000008152600401612ebf90615164565b60405180910390fd5b612ed460008383612fdd565b6001600360008473ffffffffffffffffffffffffffffffffffffffff1673ffffffffffffffffffffffffffffffffffffffff1681526020019081526020016000206000828254612f24919061496e565b92505081905550816002600083815260200190815260200160002060006101000a81548173ffffffffffffffffffffffffffffffffffffffff021916908373ffffffffffffffffffffffffffffffffffffffff160217905550808273ffffffffffffffffffffffffffffffffffffffff16600073ffffffffffffffffffffffffffffffffffffffff167fddf252ad1be2c89b69c2b068fc378daa952ba7f163c4a11628f55a4df523b3ef60405160405180910390a45050565b600073ffffffffffffffffffffffffffffffffffffffff168373ffffffffffffffffffffffffffffffffffffffff1614806130445750600073ffffffffffffffffffffffffffffffffffffffff168273ffffffffffffffffffffffffffffffffffffffff16145b1561304e576131c6565b600860000160009054906101000a900460ff16613118576000600181111561307957613078613c9f565b5b6007600083815260200190815260200160002060030160009054906101000a900460ff1660018111156130af576130ae613c9f565b5b146130ef576040517f08c379a00000000000000000000000000000000000000000000000000000000081526004016130e6906151d0565b60405180910390fd5b6001600860000160006101000a81548160ff021916908315150217905550806008600101819055505b60006007600083815260200190815260200160002060050180549050905060005b818160ff161015613197576131848585600760008781526020019081526020016000206005018460ff1681548110613174576131736141ca565b5b906000526020600020015461273d565b808061318f906142c7565b915050613139565b506008600101548214156131c4576000600860000160006101000a81548160ff0219169083151502179055505b505b505050565b60006131ec8473ffffffffffffffffffffffffffffffffffffffff16613353565b15613346578373ffffffffffffffffffffffffffffffffffffffff1663150b7a0261321561259e565b8786866040518563ffffffff1660e01b81526004016132379493929190615245565b6020604051808303816000875af192505050801561327357506040513d601f19601f8201168201806040525081019061327091906152a6565b60015b6132f6573d80600081146132a3576040519150601f19603f3d011682016040523d82523d6000602084013e6132a8565b606091505b506000815114156132ee576040517f08c379a00000000000000000000000000000000000000000000000000000000081526004016132e590614fb2565b60405180910390fd5b805181602001fd5b63150b7a0260e01b7bffffffffffffffffffffffffffffffffffffffffffffffffffffffff1916817bffffffffffffffffffffffffffffffffffffffffffffffffffffffff19161491505061334b565b600190505b949350505050565b600080823b905060008111915050919050565b8280548282559060005260206000209081019282156133a2579160200282015b828111156133a1578251825591602001919060010190613386565b5b5090506133af919061349a565b5090565b5080546133bf90613fe2565b6000825580601f106133d157506133f0565b601f0160209004906000526020600020908101906133ef919061349a565b5b50565b5080546000825590600052602060002090810190613411919061349a565b50565b82805461342090613fe2565b90600052602060002090601f0160209004810192826134425760008555613489565b82601f1061345b57805160ff1916838001178555613489565b82800160010185558215613489579182015b8281111561348857825182559160200191906001019061346d565b5b509050613496919061349a565b5090565b5b808211156134b357600081600090555060010161349b565b5090565b6000604051905090565b600080fd5b600080fd5b60007fffffffff0000000000000000000000000000000000000000000000000000000082169050919050565b613500816134cb565b811461350b57600080fd5b50565b60008135905061351d816134f7565b92915050565b600060208284031215613539576135386134c1565b5b60006135478482850161350e565b91505092915050565b60008115159050919050565b61356581613550565b82525050565b6000602082019050613580600083018461355c565b92915050565b600081519050919050565b600082825260208201905092915050565b60005b838110156135c05780820151818401526020810190506135a5565b838111156135cf576000848401525b50505050565b6000601f19601f8301169050919050565b60006135f182613586565b6135fb8185613591565b935061360b8185602086016135a2565b613614816135d5565b840191505092915050565b6000602082019050818103600083015261363981846135e6565b905092915050565b6000819050919050565b61365481613641565b811461365f57600080fd5b50565b6000813590506136718161364b565b92915050565b60006020828403121561368d5761368c6134c1565b5b600061369b84828501613662565b91505092915050565b600073ffffffffffffffffffffffffffffffffffffffff82169050919050565b60006136cf826136a4565b9050919050565b6136df816136c4565b82525050565b60006020820190506136fa60008301846136d6565b92915050565b613709816136c4565b811461371457600080fd5b50565b60008135905061372681613700565b92915050565b60008060408385031215613743576137426134c1565b5b600061375185828601613717565b925050602061376285828601613662565b9150509250929050565b600080fd5b600080fd5b7f4e487b7100000000000000000000000000000000000000000000000000000000600052604160045260246000fd5b6137ae826135d5565b810181811067ffffffffffffffff821117156137cd576137cc613776565b5b80604052505050565b60006137e06134b7565b90506137ec82826137a5565b919050565b600067ffffffffffffffff82111561380c5761380b613776565b5b613815826135d5565b9050602081019050919050565b82818337600083830152505050565b600061384461383f846137f1565b6137d6565b9050828152602081018484840111156138605761385f613771565b5b61386b848285613822565b509392505050565b600082601f8301126138885761388761376c565b5b8135613898848260208601613831565b91505092915050565b600067ffffffffffffffff8211156138bc576138bb613776565b5b602082029050602081019050919050565b600080fd5b60006138e56138e0846138a1565b6137d6565b90508083825260208201905060208402830185811115613908576139076138cd565b5b835b81811015613931578061391d8882613662565b84526020840193505060208101905061390a565b5050509392505050565b600082601f8301126139505761394f61376c565b5b81356139608482602086016138d2565b91505092915050565b60008060008060808587031215613983576139826134c1565b5b600061399187828801613662565b945050602085013567ffffffffffffffff8111156139b2576139b16134c6565b5b6139be87828801613873565b935050604085013567ffffffffffffffff8111156139df576139de6134c6565b5b6139eb87828801613873565b925050606085013567ffffffffffffffff811115613a0c57613a0b6134c6565b5b613a188782880161393b565b91505092959194509250565b613a2d81613641565b82525050565b6000602082019050613a486000830184613a24565b92915050565b600080600060608486031215613a6757613a666134c1565b5b6000613a7586828701613717565b9350506020613a8686828701613717565b9250506040613a9786828701613662565b9150509250925092565b600081519050919050565b600082825260208201905092915050565b6000819050602082019050919050565b613ad681613641565b82525050565b6000613ae88383613acd565b60208301905092915050565b6000602082019050919050565b6000613b0c82613aa1565b613b168185613aac565b9350613b2183613abd565b8060005b83811015613b52578151613b398882613adc565b9750613b4483613af4565b925050600181019050613b25565b5085935050505092915050565b60006020820190508181036000830152613b798184613b01565b905092915050565b60008060408385031215613b9857613b976134c1565b5b6000613ba685828601613662565b9250506020613bb785828601613662565b9150509250929050565b600060208284031215613bd757613bd66134c1565b5b6000613be584828501613717565b91505092915050565b6000606082019050613c036000830186613a24565b8181036020830152613c1581856135e6565b90508181036040830152613c2981846135e6565b9050949350505050565b613c3c81613550565b8114613c4757600080fd5b50565b600081359050613c5981613c33565b92915050565b60008060408385031215613c7657613c756134c1565b5b6000613c8485828601613717565b9250506020613c9585828601613c4a565b9150509250929050565b7f4e487b7100000000000000000000000000000000000000000000000000000000600052602160045260246000fd5b60028110613cdf57613cde613c9f565b5b50565b6000819050613cf082613cce565b919050565b6000613d0082613ce2565b9050919050565b613d1081613cf5565b82525050565b6000606082019050613d2b6000830186613d07565b613d386020830185613a24565b8181036040830152613d4a8184613b01565b9050949350505050565b60008060408385031215613d6b57613d6a6134c1565b5b6000613d7985828601613662565b925050602083013567ffffffffffffffff811115613d9a57613d996134c6565b5b613da68582860161393b565b9150509250929050565b600067ffffffffffffffff821115613dcb57613dca613776565b5b613dd4826135d5565b9050602081019050919050565b6000613df4613def84613db0565b6137d6565b905082815260208101848484011115613e1057613e0f613771565b5b613e1b848285613822565b509392505050565b600082601f830112613e3857613e3761376c565b5b8135613e48848260208601613de1565b91505092915050565b60008060008060808587031215613e6b57613e6a6134c1565b5b6000613e7987828801613717565b9450506020613e8a87828801613717565b9350506040613e9b87828801613662565b925050606085013567ffffffffffffffff811115613ebc57613ebb6134c6565b5b613ec887828801613e23565b91505092959194509250565b60008060008060808587031215613eee57613eed6134c1565b5b6000613efc87828801613717565b9450506020613f0d87828801613662565b935050604085013567ffffffffffffffff811115613f2e57613f2d6134c6565b5b613f3a87828801613873565b925050606085013567ffffffffffffffff811115613f5b57613f5a6134c6565b5b613f6787828801613873565b91505092959194509250565b60008060408385031215613f8a57613f896134c1565b5b6000613f9885828601613717565b9250506020613fa985828601613717565b9150509250929050565b7f4e487b7100000000000000000000000000000000000000000000000000000000600052602260045260246000fd5b60006002820490506001821680613ffa57607f821691505b6020821081141561400e5761400d613fb3565b5b50919050565b7f4552433732313a20617070726f76656420717565727920666f72206e6f6e657860008201527f697374656e7420746f6b656e0000000000000000000000000000000000000000602082015250565b6000614070602c83613591565b915061407b82614014565b604082019050919050565b6000602082019050818103600083015261409f81614063565b9050919050565b7f4552433732313a20617070726f76616c20746f2063757272656e74206f776e6560008201527f7200000000000000000000000000000000000000000000000000000000000000602082015250565b6000614102602183613591565b915061410d826140a6565b604082019050919050565b60006020820190508181036000830152614131816140f5565b9050919050565b7f4552433732313a20617070726f76652063616c6c6572206973206e6f74206f7760008201527f6e6572206e6f7220617070726f76656420666f7220616c6c0000000000000000602082015250565b6000614194603883613591565b915061419f82614138565b604082019050919050565b600060208201905081810360008301526141c381614187565b9050919050565b7f4e487b7100000000000000000000000000000000000000000000000000000000600052603260045260246000fd5b7f4e6f7420617574686f72697a656420746f206d6f7665206f6e65206f72206d6f60008201527f7265206f66207468657365207061727473000000000000000000000000000000602082015250565b6000614255603183613591565b9150614260826141f9565b604082019050919050565b6000602082019050818103600083015261428481614248565b9050919050565b7f4e487b7100000000000000000000000000000000000000000000000000000000600052601160045260246000fd5b600060ff82169050919050565b60006142d2826142ba565b915060ff8214156142e6576142e561428b565b5b600182019050919050565b7f4f6e65206f72206d6f726520706172747320636f6e73747261696e6564000000600082015250565b6000614327601d83613591565b9150614332826142f1565b602082019050919050565b600060208201905081810360008301526143568161431a565b9050919050565b7f416c6c20746865207061727473206d7573742068617665207468652073616d6560008201527f206f776e65720000000000000000000000000000000000000000000000000000602082015250565b60006143b9602683613591565b91506143c48261435d565b604082019050919050565b600060208201905081810360008301526143e8816143ac565b9050919050565b7f50726f76696465206d6f7265207468616e206f6e65207061727420746f20617360008201527f73656d626c650000000000000000000000000000000000000000000000000000602082015250565b600061444b602683613591565b9150614456826143ef565b604082019050919050565b6000602082019050818103600083015261447a8161443e565b9050919050565b7f546f6f206d616e792070617274732070726f7669646564000000000000000000600082015250565b60006144b7601783613591565b91506144c282614481565b602082019050919050565b600060208201905081810360008301526144e6816144aa565b9050919050565b7f4552433732313a207472616e736665722063616c6c6572206973206e6f74206f60008201527f776e6572206e6f7220617070726f766564000000000000000000000000000000602082015250565b6000614549603183613591565b9150614554826144ed565b604082019050919050565b600060208201905081810360008301526145788161453c565b9050919050565b7f4e6f7420617574686f72697a656420746f206d6f766520746869732070617274600082015250565b60006145b5602083613591565b91506145c08261457f565b602082019050919050565b600060208201905081810360008301526145e4816145a8565b9050919050565b7f5061727420636f6e73747261696e656400000000000000000000000000000000600082015250565b6000614621601083613591565b915061462c826145eb565b602082019050919050565b6000602082019050818103600083015261465081614614565b9050919050565b7f50617274206e6f7420617373656d626c65640000000000000000000000000000600082015250565b600061468d601283613591565b915061469882614657565b602082019050919050565b600060208201905081810360008301526146bc81614680565b9050919050565b7f4552433732313a206f776e657220717565727920666f72206e6f6e657869737460008201527f656e7420746f6b656e0000000000000000000000000000000000000000000000602082015250565b600061471f602983613591565b915061472a826146c3565b604082019050919050565b6000602082019050818103600083015261474e81614712565b9050919050565b600061476082613641565b915061476b83613641565b92508282101561477e5761477d61428b565b5b828203905092915050565b7f4e487b7100000000000000000000000000000000000000000000000000000000600052603160045260246000fd5b7f50617274206e6f7420666f756e64206f6e20746865206c697374206f6620636860008201527f696c6472656e0000000000000000000000000000000000000000000000000000602082015250565b6000614814602683613591565b915061481f826147b8565b604082019050919050565b6000602082019050818103600083015261484381614807565b9050919050565b7f4552433732313a2062616c616e636520717565727920666f7220746865207a6560008201527f726f206164647265737300000000000000000000000000000000000000000000602082015250565b60006148a6602a83613591565b91506148b18261484a565b604082019050919050565b600060208201905081810360008301526148d581614899565b9050919050565b7f50726f76696465206174206c65617374206f6e65207061727420746f2061646460008201527f20746f20617373656d626c790000000000000000000000000000000000000000602082015250565b6000614938602c83613591565b9150614943826148dc565b604082019050919050565b600060208201905081810360008301526149678161492b565b9050919050565b600061497982613641565b915061498483613641565b9250827fffffffffffffffffffffffffffffffffffffffffffffffffffffffffffffffff038211156149b9576149b861428b565b5b828201905092915050565b7f546f6f206d616e79206368696c6472656e000000000000000000000000000000600082015250565b60006149fa601183613591565b9150614a05826149c4565b602082019050919050565b60006020820190508181036000830152614a29816149ed565b9050919050565b7f417373656d626c7920616e64207061727473206f776e657220646f6e2774206d60008201527f6174636800000000000000000000000000000000000000000000000000000000602082015250565b6000614a8c602483613591565b9150614a9782614a30565b604082019050919050565b60006020820190508181036000830152614abb81614a7f565b9050919050565b7f4552433732314d657461646174613a2055524920717565727920666f72206e6f60008201527f6e6578697374656e7420746f6b656e0000000000000000000000000000000000602082015250565b6000614b1e602f83613591565b9150614b2982614ac2565b604082019050919050565b60006020820190508181036000830152614b4d81614b11565b9050919050565b600081905092915050565b6000614b6a82613586565b614b748185614b54565b9350614b848185602086016135a2565b80840191505092915050565b6000614b9c8285614b5f565b9150614ba88284614b5f565b91508190509392505050565b7f50617274206e756d6265722073686f756c646e27742062652030000000000000600082015250565b6000614bea601a83613591565b9150614bf582614bb4565b602082019050919050565b60006020820190508181036000830152614c1981614bdd565b9050919050565b7f41737369676e2061206e616d6520666f7220746865206e657720706172740000600082015250565b6000614c56601e83613591565b9150614c6182614c20565b602082019050919050565b60006020820190508181036000830152614c8581614c49565b9050919050565b7f41737369676e2061206d616e75666163747572657220666f7220746865206e6560008201527f7720706172740000000000000000000000000000000000000000000000000000602082015250565b6000614ce8602683613591565b9150614cf382614c8c565b604082019050919050565b60006020820190508181036000830152614d1781614cdb565b9050919050565b7f4552433732313a206f70657261746f7220717565727920666f72206e6f6e657860008201527f697374656e7420746f6b656e0000000000000000000000000000000000000000602082015250565b6000614d7a602c83613591565b9150614d8582614d1e565b604082019050919050565b60006020820190508181036000830152614da981614d6d565b9050919050565b7f4552433732313a207472616e73666572206f6620746f6b656e2074686174206960008201527f73206e6f74206f776e0000000000000000000000000000000000000000000000602082015250565b6000614e0c602983613591565b9150614e1782614db0565b604082019050919050565b60006020820190508181036000830152614e3b81614dff565b9050919050565b7f4552433732313a207472616e7366657220746f20746865207a65726f2061646460008201527f7265737300000000000000000000000000000000000000000000000000000000602082015250565b6000614e9e602483613591565b9150614ea982614e42565b604082019050919050565b60006020820190508181036000830152614ecd81614e91565b9050919050565b7f4552433732313a20617070726f766520746f2063616c6c657200000000000000600082015250565b6000614f0a601983613591565b9150614f1582614ed4565b602082019050919050565b60006020820190508181036000830152614f3981614efd565b9050919050565b7f4552433732313a207472616e7366657220746f206e6f6e20455243373231526560008201527f63656976657220696d706c656d656e7465720000000000000000000000000000602082015250565b6000614f9c603283613591565b9150614fa782614f40565b604082019050919050565b60006020820190508181036000830152614fcb81614f8f565b9050919050565b6000614fdd82613641565b91507fffffffffffffffffffffffffffffffffffffffffffffffffffffffffffffffff8214156150105761500f61428b565b5b600182019050919050565b7f4e487b7100000000000000000000000000000000000000000000000000000000600052601260045260246000fd5b600061505582613641565b915061506083613641565b9250826150705761506f61501b565b5b828204905092915050565b600061508682613641565b915061509183613641565b9250826150a1576150a061501b565b5b828206905092915050565b7f4552433732313a206d696e7420746f20746865207a65726f2061646472657373600082015250565b60006150e2602083613591565b91506150ed826150ac565b602082019050919050565b60006020820190508181036000830152615111816150d5565b9050919050565b7f4552433732313a20746f6b656e20616c7265616479206d696e74656400000000600082015250565b600061514e601c83613591565b915061515982615118565b602082019050919050565b6000602082019050818103600083015261517d81615141565b9050919050565b7f43616e6e6f74207472616e7366657220636f6e73747261696e65642070617274600082015250565b60006151ba602083613591565b91506151c582615184565b602082019050919050565b600060208201905081810360008301526151e9816151ad565b9050919050565b600081519050919050565b600082825260208201905092915050565b6000615217826151f0565b61522181856151fb565b93506152318185602086016135a2565b61523a816135d5565b840191505092915050565b600060808201905061525a60008301876136d6565b61526760208301866136d6565b6152746040830185613a24565b8181036060830152615286818461520c565b905095945050505050565b6000815190506152a0816134f7565b92915050565b6000602082840312156152bc576152bb6134c1565b5b60006152ca84828501615291565b9150509291505056fea26469706673582212202c03751a5dd390746c770b7164a187f6e3dd9ca81ccea9b1cb76a8072c2e667864736f6c634300080a0033",
  "immutableReferences": {},
  "source": "// SPDX-License-Identifier: MIT\r\n\r\npragma solidity ^0.8.0;\r\n\r\nimport \"@openzeppelin/contracts/token/ERC721/ERC721.sol\";\r\nimport \"@openzeppelin/contracts/utils/Counters.sol\";\r\n\r\ncontract PartsFactory is ERC721 {\r\n    \r\n    using Counters for Counters.Counter;\r\n    Counters.Counter private partsCounter;\r\n    \r\n    // Parts assembly status \r\n    enum AssemblyStatus {DISASSEMBLED, ASSEMBLED}\r\n\r\n    // Attributes of Parts\r\n    struct Part {\r\n        uint256 partNumber;\r\n        string name;\r\n        string manufacturer;\r\n        AssemblyStatus status;\r\n        uint256 parentPartId;\r\n        uint256[] childrenPartId;\r\n    }\r\n\r\n    // Transfer status helper structure\r\n    struct TransferHelper {\r\n        bool inTransfer;\r\n        uint256 parentPartId;\r\n    }\r\n\r\n    // partId to Part Struct\r\n    mapping(uint256 => Part) private parts;\r\n    TransferHelper transferHelper;\r\n\r\n\r\n    constructor(string memory _name, string memory _symbol) ERC721(_name, _symbol) {}\r\n\r\n    /*--------------------------EVENTS---------------------------*/\r\n\r\n    event newPart(address indexed _owner, uint256 indexed _partNumber, uint256 indexed _partId);\r\n    event partAssembled(address indexed _owner, uint256 indexed _partNumber, uint256 indexed _partId);\r\n    event partDisassembled(address indexed _owner, uint256 indexed _partNumber, uint256 indexed _partId);\r\n    event partAddedToAssembly(address indexed _owner, uint256 indexed _parentPartId, uint256 indexed _partId);\r\n    event partRemovedFromAssembly(address indexed _owner, uint256 indexed _parentPartId, uint256 indexed _partId);\r\n\r\n    /*------------------------MODIFIERS-------------------------*/\r\n\r\n    // Checks if msg.sender is authorized to assemble parts \r\n    modifier areAuthorized(uint256[] memory _partIds) {\r\n        for(uint8 i = 0; i < _partIds.length; i++) {\r\n            require(_isApprovedOrOwner(msg.sender, _partIds[i]), \"Not authorized to move one or more of these parts\");       \r\n        }\r\n        _;\r\n    }\r\n\r\n    // Checks if all parts are disassembled\r\n    modifier areDisassembled(uint256[] memory _partIds) {\r\n        for(uint8 i = 0; i < _partIds.length; i++) {\r\n            require(parts[_partIds[i]].status == AssemblyStatus.DISASSEMBLED, \"One or more parts constrained\");       \r\n        }\r\n        _;\r\n    }\r\n\r\n    // Checks if all parts have the same owner\r\n    modifier haveSameOwner(uint256[] memory _partIds) {\r\n        address prevOwner;\r\n        for(uint8 i = 0; i < _partIds.length; i++) {\r\n            address currOwner = ownerOf(_partIds[i]);\r\n            require(currOwner == prevOwner || prevOwner == address(0), \"All the parts must have the same owner\");\r\n            prevOwner = currOwner;\r\n        }\r\n        _;\r\n    }    \r\n\r\n    // Checks if msg.sender is authorized to assemble part\r\n    modifier isAuthorized(uint256 _partId) {   \r\n        require(_isApprovedOrOwner(msg.sender, _partId), \"Not authorized to move this part\");       \r\n        _;\r\n    }\r\n\r\n    // Checks if part is disassembled\r\n    modifier isDisassembled(uint256  _partId) {\r\n        require(parts[_partId].status == AssemblyStatus.DISASSEMBLED, \"Part constrained\");       \r\n        _;\r\n    }\r\n\r\n\r\n    /*------------------------FUNCTIONS-------------------------*/\r\n\r\n    //Return Part properties\r\n    function getPartProperties(uint256 _partId) public view returns(uint256, string memory, string memory){\r\n        return (parts[_partId].partNumber, parts[_partId].name, parts[_partId].manufacturer);\r\n    }\r\n\r\n    function getPartRelations(uint256 _partId) public view returns(AssemblyStatus, uint256, uint256[] memory){\r\n        return (parts[_partId].status, parts[_partId].parentPartId, parts[_partId].childrenPartId);\r\n    }\r\n\r\n    // Mints `partId` and transfers it to `_owner`.\r\n    function mintSinglePart(\r\n        address _owner,\r\n        uint256 _partNumber,\r\n        string memory _name,\r\n        string memory _manufacturer\r\n    )   public\r\n        returns (uint256)\r\n    {\r\n        require(_partNumber != 0, \"Part number shouldn't be 0\");\r\n        require(bytes(_name).length > 0, \"Assign a name for the new part\");\r\n        require(bytes(_manufacturer).length > 0, \"Assign a manufacturer for the new part\");\r\n\r\n        Part memory part = Part({\r\n            partNumber: _partNumber,\r\n            name: _name,\r\n            manufacturer: _manufacturer,\r\n            status: AssemblyStatus.DISASSEMBLED,\r\n            parentPartId: 0,\r\n            childrenPartId: new uint[](0)\r\n        });\r\n\r\n        partsCounter.increment();\r\n        uint256 partId = partsCounter.current();\r\n        parts[partId] = part;\r\n        _mint(_owner, partId);\r\n\r\n        emit newPart(_owner, _partNumber, partId);\r\n\r\n        return partId;\r\n    }\r\n\r\n    // Assembles `_partIds` and mints `newPartID` and tranfers it to msg.sender\r\n    function assembleParts(\r\n        uint256 _newPartNumber,\r\n        string memory _newPartName,\r\n        string memory _newPartManufacturer,\r\n        uint256[] memory _partIds\r\n    )   public \r\n        areAuthorized(_partIds)\r\n        areDisassembled(_partIds)\r\n        haveSameOwner(_partIds)\r\n        returns (uint256) {\r\n        require(_partIds.length > 1, \"Provide more than one part to assemble\");\r\n        require(_partIds.length <= 10, \"Too many parts provided\");\r\n\r\n        address owner = ownerOf(_partIds[0]);\r\n        uint256 newPartId = mintSinglePart(owner, _newPartNumber, _newPartName, _newPartManufacturer);\r\n\r\n        parts[newPartId].childrenPartId = _partIds;\r\n\r\n        for(uint8 i = 0; i < _partIds.length; i++) {\r\n            parts[_partIds[i]].status = AssemblyStatus.ASSEMBLED;\r\n            parts[_partIds[i]].parentPartId = newPartId;\r\n        }\r\n\r\n        emit partAssembled(owner, _newPartNumber, newPartId);\r\n        return newPartId;\r\n    }\r\n\r\n    // Disassembled children parts from `_partId`\r\n    function disassemblePart(\r\n        uint256 _partId\r\n    )   public \r\n        isAuthorized(_partId)\r\n        isDisassembled(_partId)\r\n        returns (uint256[] memory) {\r\n        require(parts[_partId].childrenPartId.length > 0, \"Part not assembled\");\r\n\r\n        uint256 length = parts[_partId].childrenPartId.length;\r\n        uint256[] memory disassembledPartIds = new uint256[](length);\r\n        for(uint8 i = 0; i < length; i++) {\r\n            disassembledPartIds[i] = parts[_partId].childrenPartId[i];\r\n            parts[parts[_partId].childrenPartId[i]].status = AssemblyStatus.DISASSEMBLED;\r\n            parts[parts[_partId].childrenPartId[i]].parentPartId = 0;\r\n        }\r\n\r\n        emit partDisassembled(ownerOf(_partId), parts[_partId].partNumber, _partId);\r\n\r\n        _burn(_partId);\r\n        delete parts[_partId];\r\n        return disassembledPartIds;\r\n    }\r\n\r\n    // Adds `_partIds` to `_assemblyPartId` children parts \r\n    function addToAssembly(\r\n        uint256 _assemblyPartId,\r\n        uint256[] memory _partIds\r\n    )   public \r\n        areAuthorized(_partIds)\r\n        isAuthorized(_assemblyPartId)\r\n        areDisassembled(_partIds)\r\n        isDisassembled(_assemblyPartId)\r\n        haveSameOwner(_partIds)\r\n        {\r\n        address owner = ownerOf(_assemblyPartId);\r\n        require(_partIds.length >= 1, \"Provide at least one part to add to assembly\");\r\n        require(parts[_assemblyPartId].childrenPartId.length + _partIds.length <= 10, \"Too many children\");\r\n        require(owner == ownerOf(_partIds[0]), \"Assembly and parts owner don't match\");\r\n\r\n        for(uint8 i=0; i < _partIds.length; i++) {\r\n            parts[_assemblyPartId].childrenPartId.push(_partIds[i]);\r\n            parts[_partIds[i]].status = AssemblyStatus.ASSEMBLED;\r\n            parts[_partIds[i]].parentPartId = _assemblyPartId;\r\n\r\n            emit partAddedToAssembly(owner, _assemblyPartId, _partIds[i]);\r\n        }\r\n    }\r\n\r\n    // Remove `_partId` from `_assemblyPartId`\r\n    function removeFromAssembly(\r\n        uint256 _assemblyPartId,\r\n        uint256 _partId\r\n        )   public\r\n            isAuthorized(_partId)\r\n            isAuthorized(_assemblyPartId)\r\n            isDisassembled(_assemblyPartId)\r\n            returns(uint256[] memory disassembledPartIds) {\r\n            bool found;\r\n            uint256 length = parts[_assemblyPartId].childrenPartId.length;\r\n            // If `_assemblyPartId` has only 2 parts disassemble all\r\n            if(parts[_assemblyPartId].childrenPartId.length == 2) { \r\n                for(uint8 i = 0; i < length; i++) {\r\n                    if(parts[_assemblyPartId].childrenPartId[i] == _partId) {\r\n                        found = true;\r\n                        break;\r\n                    }\r\n                }\r\n                if(found) {\r\n                    disassembledPartIds = new uint256[](length);\r\n                    for(uint8 j = 0; j < length; j++) {\r\n                        disassembledPartIds[j] = parts[_assemblyPartId].childrenPartId[j];\r\n                        parts[parts[_assemblyPartId].childrenPartId[j]].status = AssemblyStatus.DISASSEMBLED;\r\n                        parts[parts[_assemblyPartId].childrenPartId[j]].parentPartId = 0;\r\n                    }\r\n                    _burn(_assemblyPartId);\r\n                    delete parts[_assemblyPartId];\r\n                    return disassembledPartIds;\r\n                }\r\n            }\r\n            // Else disassemble only `_partId`\r\n            else {\r\n                disassembledPartIds = new uint256[](length);\r\n                for(uint8 i = 0; i < length; i++) {\r\n                    if(parts[_assemblyPartId].childrenPartId[i] == _partId) {\r\n                        disassembledPartIds[0] = parts[_assemblyPartId].childrenPartId[i];\r\n                        found = true;\r\n                        parts[_assemblyPartId].childrenPartId[i] = parts[_assemblyPartId].childrenPartId[length - 1];\r\n                        parts[_assemblyPartId].childrenPartId.pop();\r\n                        parts[_partId].status = AssemblyStatus.DISASSEMBLED;\r\n                        parts[_partId].parentPartId = 0;\r\n                        break;\r\n                    }\r\n                }\r\n                return disassembledPartIds;\r\n            }\r\n            require(found, \"Part not found on the list of children\");\r\n            emit partRemovedFromAssembly(ownerOf(_assemblyPartId), _assemblyPartId, _partId);\r\n        }\r\n\r\n    function _beforeTokenTransfer(\r\n        address from,\r\n        address to,\r\n        uint256 tokenId\r\n    )   internal override {\r\n        if(from == address(0) || to == address(0)) {\r\n            return;\r\n        } else if(!transferHelper.inTransfer) {\r\n            require(parts[tokenId].status == AssemblyStatus.DISASSEMBLED, \"Cannot transfer constrained part\");\r\n            transferHelper.inTransfer = true;\r\n            transferHelper.parentPartId = tokenId;\r\n        }\r\n\r\n        // recursive transfer of all the children along with a parent\r\n        uint256 length = parts[tokenId].childrenPartId.length;\r\n        for(uint8 i = 0; i < length; i++) {\r\n            _transfer(from, to, parts[tokenId].childrenPartId[i]);\r\n        }\r\n\r\n        if(tokenId == transferHelper.parentPartId) {\r\n            transferHelper.inTransfer = false;\r\n        }\r\n    }\r\n}\r\n",
  "sourcePath": "C:\\Users\\kaspe\\Documents\\GBC_Blockchain_Development\\Smart_Contracts_Development_Essentials\\ERC-721-Assigment\\contracts\\PartsFactory.sol",
  "compiler": {
    "name": "solc",
    "version": "0.8.10+commit.fc410830.Emscripten.clang"
  },
  "schemaVersion": "3.4.3",
  "updatedAt": "2021-11-29T01:28:16.415Z",
  "devdoc": {
    "kind": "dev",
    "methods": {
      "approve(address,uint256)": {
        "details": "See {IERC721-approve}."
      },
      "balanceOf(address)": {
        "details": "See {IERC721-balanceOf}."
      },
      "getApproved(uint256)": {
        "details": "See {IERC721-getApproved}."
      },
      "isApprovedForAll(address,address)": {
        "details": "See {IERC721-isApprovedForAll}."
      },
      "name()": {
        "details": "See {IERC721Metadata-name}."
      },
      "ownerOf(uint256)": {
        "details": "See {IERC721-ownerOf}."
      },
      "safeTransferFrom(address,address,uint256)": {
        "details": "See {IERC721-safeTransferFrom}."
      },
      "safeTransferFrom(address,address,uint256,bytes)": {
        "details": "See {IERC721-safeTransferFrom}."
      },
      "setApprovalForAll(address,bool)": {
        "details": "See {IERC721-setApprovalForAll}."
      },
      "supportsInterface(bytes4)": {
        "details": "See {IERC165-supportsInterface}."
      },
      "symbol()": {
        "details": "See {IERC721Metadata-symbol}."
      },
      "tokenURI(uint256)": {
        "details": "See {IERC721Metadata-tokenURI}."
      },
      "transferFrom(address,address,uint256)": {
        "details": "See {IERC721-transferFrom}."
      }
    },
    "version": 1
  },
  "userdoc": {
    "kind": "user",
    "methods": {},
    "version": 1
  }
}