{
  "contractName": "PartsFactory",
  "abi": [
    {
      "inputs": [
        {
          "internalType": "string",
          "name": "_name",
          "type": "string"
        },
        {
          "internalType": "string",
          "name": "_symbol",
          "type": "string"
        }
      ],
      "stateMutability": "nonpayable",
      "type": "constructor"
    },
    {
      "anonymous": false,
      "inputs": [
        {
          "indexed": true,
          "internalType": "address",
          "name": "owner",
          "type": "address"
        },
        {
          "indexed": true,
          "internalType": "address",
          "name": "approved",
          "type": "address"
        },
        {
          "indexed": true,
          "internalType": "uint256",
          "name": "tokenId",
          "type": "uint256"
        }
      ],
      "name": "Approval",
      "type": "event"
    },
    {
      "anonymous": false,
      "inputs": [
        {
          "indexed": true,
          "internalType": "address",
          "name": "owner",
          "type": "address"
        },
        {
          "indexed": true,
          "internalType": "address",
          "name": "operator",
          "type": "address"
        },
        {
          "indexed": false,
          "internalType": "bool",
          "name": "approved",
          "type": "bool"
        }
      ],
      "name": "ApprovalForAll",
      "type": "event"
    },
    {
      "anonymous": false,
      "inputs": [
        {
          "indexed": true,
          "internalType": "address",
          "name": "from",
          "type": "address"
        },
        {
          "indexed": true,
          "internalType": "address",
          "name": "to",
          "type": "address"
        },
        {
          "indexed": true,
          "internalType": "uint256",
          "name": "tokenId",
          "type": "uint256"
        }
      ],
      "name": "Transfer",
      "type": "event"
    },
    {
      "anonymous": false,
      "inputs": [
        {
          "indexed": true,
          "internalType": "address",
          "name": "_owner",
          "type": "address"
        },
        {
          "indexed": true,
          "internalType": "uint256",
          "name": "_partNumber",
          "type": "uint256"
        },
        {
          "indexed": true,
          "internalType": "uint256",
          "name": "_partId",
          "type": "uint256"
        }
      ],
      "name": "newPart",
      "type": "event"
    },
    {
      "anonymous": false,
      "inputs": [
        {
          "indexed": true,
          "internalType": "address",
          "name": "_owner",
          "type": "address"
        },
        {
          "indexed": true,
          "internalType": "uint256",
          "name": "_parentPartId",
          "type": "uint256"
        },
        {
          "indexed": true,
          "internalType": "uint256",
          "name": "_partId",
          "type": "uint256"
        }
      ],
      "name": "partAddedToAssembly",
      "type": "event"
    },
    {
      "anonymous": false,
      "inputs": [
        {
          "indexed": true,
          "internalType": "address",
          "name": "_owner",
          "type": "address"
        },
        {
          "indexed": true,
          "internalType": "uint256",
          "name": "_partNumber",
          "type": "uint256"
        },
        {
          "indexed": true,
          "internalType": "uint256",
          "name": "_partId",
          "type": "uint256"
        }
      ],
      "name": "partAssembled",
      "type": "event"
    },
    {
      "anonymous": false,
      "inputs": [
        {
          "indexed": true,
          "internalType": "address",
          "name": "_owner",
          "type": "address"
        },
        {
          "indexed": true,
          "internalType": "uint256",
          "name": "_partNumber",
          "type": "uint256"
        },
        {
          "indexed": true,
          "internalType": "uint256",
          "name": "_partId",
          "type": "uint256"
        }
      ],
      "name": "partDisassembled",
      "type": "event"
    },
    {
      "anonymous": false,
      "inputs": [
        {
          "indexed": true,
          "internalType": "address",
          "name": "_owner",
          "type": "address"
        },
        {
          "indexed": true,
          "internalType": "uint256",
          "name": "_parentPartId",
          "type": "uint256"
        },
        {
          "indexed": true,
          "internalType": "uint256",
          "name": "_partId",
          "type": "uint256"
        }
      ],
      "name": "partRemovedFromAssembly",
      "type": "event"
    },
    {
      "inputs": [
        {
          "internalType": "address",
          "name": "to",
          "type": "address"
        },
        {
          "internalType": "uint256",
          "name": "tokenId",
          "type": "uint256"
        }
      ],
      "name": "approve",
      "outputs": [],
      "stateMutability": "nonpayable",
      "type": "function"
    },
    {
      "inputs": [
        {
          "internalType": "address",
          "name": "owner",
          "type": "address"
        }
      ],
      "name": "balanceOf",
      "outputs": [
        {
          "internalType": "uint256",
          "name": "",
          "type": "uint256"
        }
      ],
      "stateMutability": "view",
      "type": "function"
    },
    {
      "inputs": [
        {
          "internalType": "uint256",
          "name": "tokenId",
          "type": "uint256"
        }
      ],
      "name": "getApproved",
      "outputs": [
        {
          "internalType": "address",
          "name": "",
          "type": "address"
        }
      ],
      "stateMutability": "view",
      "type": "function"
    },
    {
      "inputs": [
        {
          "internalType": "address",
          "name": "owner",
          "type": "address"
        },
        {
          "internalType": "address",
          "name": "operator",
          "type": "address"
        }
      ],
      "name": "isApprovedForAll",
      "outputs": [
        {
          "internalType": "bool",
          "name": "",
          "type": "bool"
        }
      ],
      "stateMutability": "view",
      "type": "function"
    },
    {
      "inputs": [],
      "name": "name",
      "outputs": [
        {
          "internalType": "string",
          "name": "",
          "type": "string"
        }
      ],
      "stateMutability": "view",
      "type": "function"
    },
    {
      "inputs": [
        {
          "internalType": "uint256",
          "name": "tokenId",
          "type": "uint256"
        }
      ],
      "name": "ownerOf",
      "outputs": [
        {
          "internalType": "address",
          "name": "",
          "type": "address"
        }
      ],
      "stateMutability": "view",
      "type": "function"
    },
    {
      "inputs": [
        {
          "internalType": "uint256",
          "name": "",
          "type": "uint256"
        }
      ],
      "name": "parts",
      "outputs": [
        {
          "internalType": "uint256",
          "name": "partNumber",
          "type": "uint256"
        },
        {
          "internalType": "string",
          "name": "name",
          "type": "string"
        },
        {
          "internalType": "string",
          "name": "manufacturer",
          "type": "string"
        },
        {
          "internalType": "enum PartsFactory.AssemblyStatus",
          "name": "status",
          "type": "uint8"
        },
        {
          "internalType": "uint256",
          "name": "parentPartId",
          "type": "uint256"
        }
      ],
      "stateMutability": "view",
      "type": "function"
    },
    {
      "inputs": [
        {
          "internalType": "address",
          "name": "from",
          "type": "address"
        },
        {
          "internalType": "address",
          "name": "to",
          "type": "address"
        },
        {
          "internalType": "uint256",
          "name": "tokenId",
          "type": "uint256"
        }
      ],
      "name": "safeTransferFrom",
      "outputs": [],
      "stateMutability": "nonpayable",
      "type": "function"
    },
    {
      "inputs": [
        {
          "internalType": "address",
          "name": "from",
          "type": "address"
        },
        {
          "internalType": "address",
          "name": "to",
          "type": "address"
        },
        {
          "internalType": "uint256",
          "name": "tokenId",
          "type": "uint256"
        },
        {
          "internalType": "bytes",
          "name": "_data",
          "type": "bytes"
        }
      ],
      "name": "safeTransferFrom",
      "outputs": [],
      "stateMutability": "nonpayable",
      "type": "function"
    },
    {
      "inputs": [
        {
          "internalType": "address",
          "name": "operator",
          "type": "address"
        },
        {
          "internalType": "bool",
          "name": "approved",
          "type": "bool"
        }
      ],
      "name": "setApprovalForAll",
      "outputs": [],
      "stateMutability": "nonpayable",
      "type": "function"
    },
    {
      "inputs": [
        {
          "internalType": "bytes4",
          "name": "interfaceId",
          "type": "bytes4"
        }
      ],
      "name": "supportsInterface",
      "outputs": [
        {
          "internalType": "bool",
          "name": "",
          "type": "bool"
        }
      ],
      "stateMutability": "view",
      "type": "function"
    },
    {
      "inputs": [],
      "name": "symbol",
      "outputs": [
        {
          "internalType": "string",
          "name": "",
          "type": "string"
        }
      ],
      "stateMutability": "view",
      "type": "function"
    },
    {
      "inputs": [
        {
          "internalType": "uint256",
          "name": "tokenId",
          "type": "uint256"
        }
      ],
      "name": "tokenURI",
      "outputs": [
        {
          "internalType": "string",
          "name": "",
          "type": "string"
        }
      ],
      "stateMutability": "view",
      "type": "function"
    },
    {
      "inputs": [
        {
          "internalType": "address",
          "name": "from",
          "type": "address"
        },
        {
          "internalType": "address",
          "name": "to",
          "type": "address"
        },
        {
          "internalType": "uint256",
          "name": "tokenId",
          "type": "uint256"
        }
      ],
      "name": "transferFrom",
      "outputs": [],
      "stateMutability": "nonpayable",
      "type": "function"
    },
    {
      "inputs": [
        {
          "internalType": "address",
          "name": "_owner",
          "type": "address"
        },
        {
          "internalType": "uint256",
          "name": "_partNumber",
          "type": "uint256"
        },
        {
          "internalType": "string",
          "name": "_name",
          "type": "string"
        },
        {
          "internalType": "string",
          "name": "_manufacturer",
          "type": "string"
        }
      ],
      "name": "mintSinglePart",
      "outputs": [
        {
          "internalType": "uint256",
          "name": "",
          "type": "uint256"
        }
      ],
      "stateMutability": "nonpayable",
      "type": "function"
    },
    {
      "inputs": [
        {
          "internalType": "uint256",
          "name": "_newPartNumber",
          "type": "uint256"
        },
        {
          "internalType": "string",
          "name": "_newPartName",
          "type": "string"
        },
        {
          "internalType": "string",
          "name": "_newPartManufacturer",
          "type": "string"
        },
        {
          "internalType": "uint256[]",
          "name": "_partIds",
          "type": "uint256[]"
        }
      ],
      "name": "assembleParts",
      "outputs": [
        {
          "internalType": "uint256",
          "name": "",
          "type": "uint256"
        }
      ],
      "stateMutability": "nonpayable",
      "type": "function"
    },
    {
      "inputs": [
        {
          "internalType": "uint256",
          "name": "_partId",
          "type": "uint256"
        }
      ],
      "name": "disassemblePart",
      "outputs": [
        {
          "internalType": "uint256[]",
          "name": "",
          "type": "uint256[]"
        }
      ],
      "stateMutability": "nonpayable",
      "type": "function"
    },
    {
      "inputs": [
        {
          "internalType": "uint256",
          "name": "_assemblyPartId",
          "type": "uint256"
        },
        {
          "internalType": "uint256[]",
          "name": "_partIds",
          "type": "uint256[]"
        }
      ],
      "name": "addToAssembly",
      "outputs": [],
      "stateMutability": "nonpayable",
      "type": "function"
    },
    {
      "inputs": [
        {
          "internalType": "uint256",
          "name": "_assemblyPartId",
          "type": "uint256"
        },
        {
          "internalType": "uint256",
          "name": "_partId",
          "type": "uint256"
        }
      ],
      "name": "removeFromAssembly",
      "outputs": [],
      "stateMutability": "nonpayable",
      "type": "function"
    }
  ],
  "bytecode": "0x60806040523480156200001157600080fd5b5060405162005307380380620053078339818101604052810190620000379190620002c2565b818181600090805190602001906200005192919062000075565b5080600190805190602001906200006a92919062000075565b5050505050620003ac565b828054620000839062000376565b90600052602060002090601f016020900481019282620000a75760008555620000f3565b82601f10620000c257805160ff1916838001178555620000f3565b82800160010185558215620000f3579182015b82811115620000f2578251825591602001919060010190620000d5565b5b50905062000102919062000106565b5090565b5b808211156200012157600081600090555060010162000107565b5090565b6000604051905090565b600080fd5b600080fd5b600080fd5b600080fd5b6000601f19601f8301169050919050565b7f4e487b7100000000000000000000000000000000000000000000000000000000600052604160045260246000fd5b6200018e8262000143565b810181811067ffffffffffffffff82111715620001b057620001af62000154565b5b80604052505050565b6000620001c562000125565b9050620001d3828262000183565b919050565b600067ffffffffffffffff821115620001f657620001f562000154565b5b620002018262000143565b9050602081019050919050565b60005b838110156200022e57808201518184015260208101905062000211565b838111156200023e576000848401525b50505050565b60006200025b6200025584620001d8565b620001b9565b9050828152602081018484840111156200027a57620002796200013e565b5b620002878482856200020e565b509392505050565b600082601f830112620002a757620002a662000139565b5b8151620002b984826020860162000244565b91505092915050565b60008060408385031215620002dc57620002db6200012f565b5b600083015167ffffffffffffffff811115620002fd57620002fc62000134565b5b6200030b858286016200028f565b925050602083015167ffffffffffffffff8111156200032f576200032e62000134565b5b6200033d858286016200028f565b9150509250929050565b7f4e487b7100000000000000000000000000000000000000000000000000000000600052602260045260246000fd5b600060028204905060018216806200038f57607f821691505b60208210811415620003a657620003a562000347565b5b50919050565b614f4b80620003bc6000396000f3fe608060405234801561001057600080fd5b50600436106101215760003560e01c80636a2d90b6116100ad578063b88d4fde11610071578063b88d4fde1461032a578063c87b56dd14610346578063c9eb466214610376578063ccb52037146103aa578063e985e9c5146103da57610121565b80636a2d90b61461028857806370a08231146102a457806395d89b41146102d4578063a22cb465146102f2578063b5cb90f21461030e57610121565b80631f565307116100f45780631f565307146101c057806323b872dd146101f057806342842e0e1461020c57806354fc223f146102285780636352211e1461025857610121565b806301ffc9a71461012657806306fdde0314610156578063081812fc14610174578063095ea7b3146101a4575b600080fd5b610140600480360381019061013b919061311b565b61040a565b60405161014d9190613163565b60405180910390f35b61015e6104ec565b60405161016b9190613217565b60405180910390f35b61018e6004803603810190610189919061326f565b61057e565b60405161019b91906132dd565b60405180910390f35b6101be60048036038101906101b99190613324565b610603565b005b6101da60048036038101906101d59190613561565b61071b565b6040516101e7919061362b565b60405180910390f35b61020a60048036038101906102059190613646565b610b67565b005b61022660048036038101906102219190613646565b610bc7565b005b610242600480360381019061023d919061326f565b610be7565b60405161024f9190613757565b60405180910390f35b610272600480360381019061026d919061326f565b610fa6565b60405161027f91906132dd565b60405180910390f35b6102a2600480360381019061029d9190613779565b611058565b005b6102be60048036038101906102b991906137b9565b6113ff565b6040516102cb919061362b565b60405180910390f35b6102dc6114b7565b6040516102e99190613217565b60405180910390f35b61030c60048036038101906103079190613812565b611549565b005b61032860048036038101906103239190613852565b61155f565b005b610344600480360381019061033f919061394f565b611b4f565b005b610360600480360381019061035b919061326f565b611bb1565b60405161036d9190613217565b60405180910390f35b610390600480360381019061038b919061326f565b611c58565b6040516103a1959493929190613a49565b60405180910390f35b6103c460048036038101906103bf9190613aaa565b611dab565b6040516103d1919061362b565b60405180910390f35b6103f460048036038101906103ef9190613b49565b61202c565b6040516104019190613163565b60405180910390f35b60007f80ac58cd000000000000000000000000000000000000000000000000000000007bffffffffffffffffffffffffffffffffffffffffffffffffffffffff1916827bffffffffffffffffffffffffffffffffffffffffffffffffffffffff191614806104d557507f5b5e139f000000000000000000000000000000000000000000000000000000007bffffffffffffffffffffffffffffffffffffffffffffffffffffffff1916827bffffffffffffffffffffffffffffffffffffffffffffffffffffffff1916145b806104e557506104e4826120c0565b5b9050919050565b6060600080546104fb90613bb8565b80601f016020809104026020016040519081016040528092919081815260200182805461052790613bb8565b80156105745780601f1061054957610100808354040283529160200191610574565b820191906000526020600020905b81548152906001019060200180831161055757829003601f168201915b5050505050905090565b60006105898261212a565b6105c8576040517f08c379a00000000000000000000000000000000000000000000000000000000081526004016105bf90613c5c565b60405180910390fd5b6004600083815260200190815260200160002060009054906101000a900473ffffffffffffffffffffffffffffffffffffffff169050919050565b600061060e82610fa6565b90508073ffffffffffffffffffffffffffffffffffffffff168373ffffffffffffffffffffffffffffffffffffffff16141561067f576040517f08c379a000000000000000000000000000000000000000000000000000000000815260040161067690613cee565b60405180910390fd5b8073ffffffffffffffffffffffffffffffffffffffff1661069e612196565b73ffffffffffffffffffffffffffffffffffffffff1614806106cd57506106cc816106c7612196565b61202c565b5b61070c576040517f08c379a000000000000000000000000000000000000000000000000000000000815260040161070390613d80565b60405180910390fd5b610716838361219e565b505050565b60008160005b81518160ff1610156107a65761075433838360ff168151811061074757610746613da0565b5b6020026020010151612257565b610793576040517f08c379a000000000000000000000000000000000000000000000000000000000815260040161078a90613e41565b60405180910390fd5b808061079e90613e9d565b915050610721565b508260005b81518160ff16101561087157600060018111156107cb576107ca6139d2565b5b60076000848460ff16815181106107e5576107e4613da0565b5b6020026020010151815260200190815260200160002060030160009054906101000a900460ff16600181111561081e5761081d6139d2565b5b1461085e576040517f08c379a000000000000000000000000000000000000000000000000000000000815260040161085590613f13565b60405180910390fd5b808061086990613e9d565b9150506107ab565b5083600080600090505b82518160ff16101561096d5760006108af848360ff16815181106108a2576108a1613da0565b5b6020026020010151610fa6565b90508273ffffffffffffffffffffffffffffffffffffffff168173ffffffffffffffffffffffffffffffffffffffff1614806109175750600073ffffffffffffffffffffffffffffffffffffffff168373ffffffffffffffffffffffffffffffffffffffff16145b610956576040517f08c379a000000000000000000000000000000000000000000000000000000000815260040161094d90613fa5565b60405180910390fd5b80925050808061096590613e9d565b91505061087b565b5060018651116109b2576040517f08c379a00000000000000000000000000000000000000000000000000000000081526004016109a990614037565b60405180910390fd5b600a865111156109f7576040517f08c379a00000000000000000000000000000000000000000000000000000000081526004016109ee906140a3565b60405180910390fd5b6000610a1d87600081518110610a1057610a0f613da0565b5b6020026020010151610fa6565b90506000610a2d828c8c8c611dab565b905087600760008381526020019081526020016000206005019080519060200190610a59929190612f5e565b5060005b88518160ff161015610b10576001600760008b8460ff1681518110610a8557610a84613da0565b5b6020026020010151815260200190815260200160002060030160006101000a81548160ff02191690836001811115610ac057610abf6139d2565b5b021790555081600760008b8460ff1681518110610ae057610adf613da0565b5b60200260200101518152602001908152602001600020600401819055508080610b0890613e9d565b915050610a5d565b50808b8373ffffffffffffffffffffffffffffffffffffffff167f902e23a5df9d997fc60b7867f25b53923382ae3e9f27e986f234f984c9357d1260405160405180910390a4809650505050505050949350505050565b610b78610b72612196565b82612257565b610bb7576040517f08c379a0000000000000000000000000000000000000000000000000000000008152600401610bae90614135565b60405180910390fd5b610bc2838383612335565b505050565b610be283838360405180602001604052806000815250611b4f565b505050565b606081610bf43382612257565b610c33576040517f08c379a0000000000000000000000000000000000000000000000000000000008152600401610c2a906141a1565b60405180910390fd5b8260006001811115610c4857610c476139d2565b5b6007600083815260200190815260200160002060030160009054906101000a900460ff166001811115610c7e57610c7d6139d2565b5b14610cbe576040517f08c379a0000000000000000000000000000000000000000000000000000000008152600401610cb59061420d565b60405180910390fd5b6000600760008681526020019081526020016000206005018054905011610d1a576040517f08c379a0000000000000000000000000000000000000000000000000000000008152600401610d1190614279565b60405180910390fd5b60006007600086815260200190815260200160002060050180549050905060008167ffffffffffffffff811115610d5457610d5361336e565b5b604051908082528060200260200182016040528015610d825781602001602082028036833780820191505090505b50905060005b828160ff161015610ec357600760008881526020019081526020016000206005018160ff1681548110610dbe57610dbd613da0565b5b9060005260206000200154828260ff1681518110610ddf57610dde613da0565b5b602002602001018181525050600060076000600760008b81526020019081526020016000206005018460ff1681548110610e1c57610e1b613da0565b5b9060005260206000200154815260200190815260200160002060030160006101000a81548160ff02191690836001811115610e5a57610e596139d2565b5b0217905550600060076000600760008b81526020019081526020016000206005018460ff1681548110610e9057610e8f613da0565b5b90600052602060002001548152602001908152602001600020600401819055508080610ebb90613e9d565b915050610d88565b50856007600088815260200190815260200160002060000154610ee588610fa6565b73ffffffffffffffffffffffffffffffffffffffff167f8b0752a7f68a87cd2aa39e5f2f0300d18c0641b1661eeac41b2c29118592188c60405160405180910390a4610f3086612591565b60076000878152602001908152602001600020600080820160009055600182016000610f5c9190612fab565b600282016000610f6c9190612fab565b6003820160006101000a81549060ff02191690556004820160009055600582016000610f989190612feb565b505080945050505050919050565b6000806002600084815260200190815260200160002060009054906101000a900473ffffffffffffffffffffffffffffffffffffffff169050600073ffffffffffffffffffffffffffffffffffffffff168173ffffffffffffffffffffffffffffffffffffffff16141561104f576040517f08c379a00000000000000000000000000000000000000000000000000000000081526004016110469061430b565b60405180910390fd5b80915050919050565b806110633382612257565b6110a2576040517f08c379a0000000000000000000000000000000000000000000000000000000008152600401611099906141a1565b60405180910390fd5b826110ad3382612257565b6110ec576040517f08c379a00000000000000000000000000000000000000000000000000000000081526004016110e3906141a1565b60405180910390fd5b8360006001811115611101576111006139d2565b5b6007600083815260200190815260200160002060030160009054906101000a900460ff166001811115611137576111366139d2565b5b14611177576040517f08c379a000000000000000000000000000000000000000000000000000000000815260040161116e9061420d565b60405180910390fd5b60026007600087815260200190815260200160002060050180549050116111d3576040517f08c379a00000000000000000000000000000000000000000000000000000000081526004016111ca90614377565b60405180910390fd5b6000806007600088815260200190815260200160002060050180549050905060005b818160ff1610156113685786600760008a81526020019081526020016000206005018260ff168154811061122c5761122b613da0565b5b906000526020600020015414156113555760019250600760008981526020019081526020016000206005016001836112649190614397565b8154811061127557611274613da0565b5b9060005260206000200154600760008a81526020019081526020016000206005018260ff16815481106112ab576112aa613da0565b5b9060005260206000200181905550600760008981526020019081526020016000206005018054806112df576112de6143cb565b5b6001900381819060005260206000200160009055905560006007600089815260200190815260200160002060030160006101000a81548160ff0219169083600181111561132f5761132e6139d2565b5b021790555060006007600089815260200190815260200160002060040181905550611368565b808061136090613e9d565b9150506111f5565b50816113a9576040517f08c379a00000000000000000000000000000000000000000000000000000000081526004016113a09061446c565b60405180910390fd5b85876113b489610fa6565b73ffffffffffffffffffffffffffffffffffffffff167fd30f73d87e70cd0779a82420c6755329ac37230eea45e96cc46840e6b8a524c560405160405180910390a450505050505050565b60008073ffffffffffffffffffffffffffffffffffffffff168273ffffffffffffffffffffffffffffffffffffffff161415611470576040517f08c379a0000000000000000000000000000000000000000000000000000000008152600401611467906144fe565b60405180910390fd5b600360008373ffffffffffffffffffffffffffffffffffffffff1673ffffffffffffffffffffffffffffffffffffffff168152602001908152602001600020549050919050565b6060600180546114c690613bb8565b80601f01602080910402602001604051908101604052809291908181526020018280546114f290613bb8565b801561153f5780601f106115145761010080835404028352916020019161153f565b820191906000526020600020905b81548152906001019060200180831161152257829003601f168201915b5050505050905090565b61155b611554612196565b83836126a2565b5050565b8060005b81518160ff1610156115e85761159633838360ff168151811061158957611588613da0565b5b6020026020010151612257565b6115d5576040517f08c379a00000000000000000000000000000000000000000000000000000000081526004016115cc90613e41565b60405180910390fd5b80806115e090613e9d565b915050611563565b50826115f43382612257565b611633576040517f08c379a000000000000000000000000000000000000000000000000000000000815260040161162a906141a1565b60405180910390fd5b8260005b81518160ff1610156116fd5760006001811115611657576116566139d2565b5b60076000848460ff168151811061167157611670613da0565b5b6020026020010151815260200190815260200160002060030160009054906101000a900460ff1660018111156116aa576116a96139d2565b5b146116ea576040517f08c379a00000000000000000000000000000000000000000000000000000000081526004016116e190613f13565b60405180910390fd5b80806116f590613e9d565b915050611637565b508460006001811115611713576117126139d2565b5b6007600083815260200190815260200160002060030160009054906101000a900460ff166001811115611749576117486139d2565b5b14611789576040517f08c379a00000000000000000000000000000000000000000000000000000000081526004016117809061420d565b60405180910390fd5b84600080600090505b82518160ff1610156118845760006117c6848360ff16815181106117b9576117b8613da0565b5b6020026020010151610fa6565b90508273ffffffffffffffffffffffffffffffffffffffff168173ffffffffffffffffffffffffffffffffffffffff16148061182e5750600073ffffffffffffffffffffffffffffffffffffffff168373ffffffffffffffffffffffffffffffffffffffff16145b61186d576040517f08c379a000000000000000000000000000000000000000000000000000000000815260040161186490613fa5565b60405180910390fd5b80925050808061187c90613e9d565b915050611792565b50600061189089610fa6565b90506001885110156118d7576040517f08c379a00000000000000000000000000000000000000000000000000000000081526004016118ce90614590565b60405180910390fd5b600a8851600760008c8152602001908152602001600020600501805490506118ff91906145b0565b1115611940576040517f08c379a000000000000000000000000000000000000000000000000000000000815260040161193790614652565b60405180910390fd5b6119648860008151811061195757611956613da0565b5b6020026020010151610fa6565b73ffffffffffffffffffffffffffffffffffffffff168173ffffffffffffffffffffffffffffffffffffffff16146119d1576040517f08c379a00000000000000000000000000000000000000000000000000000000081526004016119c8906146e4565b60405180910390fd5b60005b88518160ff161015611b4357600760008b8152602001908152602001600020600501898260ff1681518110611a0c57611a0b613da0565b5b602002602001015190806001815401808255809150506001900390600052602060002001600090919091909150556001600760008b8460ff1681518110611a5657611a55613da0565b5b6020026020010151815260200190815260200160002060030160006101000a81548160ff02191690836001811115611a9157611a906139d2565b5b021790555089600760008b8460ff1681518110611ab157611ab0613da0565b5b6020026020010151815260200190815260200160002060040181905550888160ff1681518110611ae457611ae3613da0565b5b60200260200101518a8373ffffffffffffffffffffffffffffffffffffffff167fb990520c5f20955d5ad86830db36220bd04c384734fec72da0aa62f7614e90b360405160405180910390a48080611b3b90613e9d565b9150506119d4565b50505050505050505050565b611b60611b5a612196565b83612257565b611b9f576040517f08c379a0000000000000000000000000000000000000000000000000000000008152600401611b9690614135565b60405180910390fd5b611bab8484848461280f565b50505050565b6060611bbc8261212a565b611bfb576040517f08c379a0000000000000000000000000000000000000000000000000000000008152600401611bf290614776565b60405180910390fd5b6000611c0561286b565b90506000815111611c255760405180602001604052806000815250611c50565b80611c2f84612882565b604051602001611c409291906147d2565b6040516020818303038152906040525b915050919050565b6007602052806000526040600020600091509050806000015490806001018054611c8190613bb8565b80601f0160208091040260200160405190810160405280929190818152602001828054611cad90613bb8565b8015611cfa5780601f10611ccf57610100808354040283529160200191611cfa565b820191906000526020600020905b815481529060010190602001808311611cdd57829003601f168201915b505050505090806002018054611d0f90613bb8565b80601f0160208091040260200160405190810160405280929190818152602001828054611d3b90613bb8565b8015611d885780601f10611d5d57610100808354040283529160200191611d88565b820191906000526020600020905b815481529060010190602001808311611d6b57829003601f168201915b5050505050908060030160009054906101000a900460ff16908060040154905085565b600080841415611df0576040517f08c379a0000000000000000000000000000000000000000000000000000000008152600401611de790614842565b60405180910390fd5b6000835111611e34576040517f08c379a0000000000000000000000000000000000000000000000000000000008152600401611e2b906148ae565b60405180910390fd5b6000825111611e78576040517f08c379a0000000000000000000000000000000000000000000000000000000008152600401611e6f90614940565b60405180910390fd5b60006040518060c0016040528086815260200185815260200184815260200160006001811115611eab57611eaa6139d2565b5b815260200160008152602001600067ffffffffffffffff811115611ed257611ed161336e565b5b604051908082528060200260200182016040528015611f005781602001602082028036833780820191505090505b508152509050611f1060066129e3565b6000611f1c60066129f9565b90508160076000838152602001908152602001600020600082015181600001556020820151816001019080519060200190611f5892919061300c565b506040820151816002019080519060200190611f7592919061300c565b5060608201518160030160006101000a81548160ff02191690836001811115611fa157611fa06139d2565b5b02179055506080820151816004015560a0820151816005019080519060200190611fcc929190612f5e565b50905050611fda8782612a07565b80868873ffffffffffffffffffffffffffffffffffffffff167f50d11956a7f023b358c2447c06f2e08948d754045ae8fdeb355da456724cc63160405160405180910390a48092505050949350505050565b6000600560008473ffffffffffffffffffffffffffffffffffffffff1673ffffffffffffffffffffffffffffffffffffffff16815260200190815260200160002060008373ffffffffffffffffffffffffffffffffffffffff1673ffffffffffffffffffffffffffffffffffffffff16815260200190815260200160002060009054906101000a900460ff16905092915050565b60007f01ffc9a7000000000000000000000000000000000000000000000000000000007bffffffffffffffffffffffffffffffffffffffffffffffffffffffff1916827bffffffffffffffffffffffffffffffffffffffffffffffffffffffff1916149050919050565b60008073ffffffffffffffffffffffffffffffffffffffff166002600084815260200190815260200160002060009054906101000a900473ffffffffffffffffffffffffffffffffffffffff1673ffffffffffffffffffffffffffffffffffffffff1614159050919050565b600033905090565b816004600083815260200190815260200160002060006101000a81548173ffffffffffffffffffffffffffffffffffffffff021916908373ffffffffffffffffffffffffffffffffffffffff160217905550808273ffffffffffffffffffffffffffffffffffffffff1661221183610fa6565b73ffffffffffffffffffffffffffffffffffffffff167f8c5be1e5ebec7d5bd14f71427d1e84f3dd0314c0f7b2291e5b200ac8c7c3b92560405160405180910390a45050565b60006122628261212a565b6122a1576040517f08c379a0000000000000000000000000000000000000000000000000000000008152600401612298906149d2565b60405180910390fd5b60006122ac83610fa6565b90508073ffffffffffffffffffffffffffffffffffffffff168473ffffffffffffffffffffffffffffffffffffffff16148061231b57508373ffffffffffffffffffffffffffffffffffffffff166123038461057e565b73ffffffffffffffffffffffffffffffffffffffff16145b8061232c575061232b818561202c565b5b91505092915050565b8273ffffffffffffffffffffffffffffffffffffffff1661235582610fa6565b73ffffffffffffffffffffffffffffffffffffffff16146123ab576040517f08c379a00000000000000000000000000000000000000000000000000000000081526004016123a290614a64565b60405180910390fd5b600073ffffffffffffffffffffffffffffffffffffffff168273ffffffffffffffffffffffffffffffffffffffff16141561241b576040517f08c379a000000000000000000000000000000000000000000000000000000000815260040161241290614af6565b60405180910390fd5b612426838383612bd5565b61243160008261219e565b6001600360008573ffffffffffffffffffffffffffffffffffffffff1673ffffffffffffffffffffffffffffffffffffffff16815260200190815260200160002060008282546124819190614397565b925050819055506001600360008473ffffffffffffffffffffffffffffffffffffffff1673ffffffffffffffffffffffffffffffffffffffff16815260200190815260200160002060008282546124d891906145b0565b92505081905550816002600083815260200190815260200160002060006101000a81548173ffffffffffffffffffffffffffffffffffffffff021916908373ffffffffffffffffffffffffffffffffffffffff160217905550808273ffffffffffffffffffffffffffffffffffffffff168473ffffffffffffffffffffffffffffffffffffffff167fddf252ad1be2c89b69c2b068fc378daa952ba7f163c4a11628f55a4df523b3ef60405160405180910390a4505050565b600061259c82610fa6565b90506125aa81600084612bd5565b6125b560008361219e565b6001600360008373ffffffffffffffffffffffffffffffffffffffff1673ffffffffffffffffffffffffffffffffffffffff16815260200190815260200160002060008282546126059190614397565b925050819055506002600083815260200190815260200160002060006101000a81549073ffffffffffffffffffffffffffffffffffffffff021916905581600073ffffffffffffffffffffffffffffffffffffffff168273ffffffffffffffffffffffffffffffffffffffff167fddf252ad1be2c89b69c2b068fc378daa952ba7f163c4a11628f55a4df523b3ef60405160405180910390a45050565b8173ffffffffffffffffffffffffffffffffffffffff168373ffffffffffffffffffffffffffffffffffffffff161415612711576040517f08c379a000000000000000000000000000000000000000000000000000000000815260040161270890614b62565b60405180910390fd5b80600560008573ffffffffffffffffffffffffffffffffffffffff1673ffffffffffffffffffffffffffffffffffffffff16815260200190815260200160002060008473ffffffffffffffffffffffffffffffffffffffff1673ffffffffffffffffffffffffffffffffffffffff16815260200190815260200160002060006101000a81548160ff0219169083151502179055508173ffffffffffffffffffffffffffffffffffffffff168373ffffffffffffffffffffffffffffffffffffffff167f17307eab39ab6107e8899845ad3d59bd9653f200f220920489ca2b5937696c31836040516128029190613163565b60405180910390a3505050565b61281a848484612335565b61282684848484612dc3565b612865576040517f08c379a000000000000000000000000000000000000000000000000000000000815260040161285c90614bf4565b60405180910390fd5b50505050565b606060405180602001604052806000815250905090565b606060008214156128ca576040518060400160405280600181526020017f300000000000000000000000000000000000000000000000000000000000000081525090506129de565b600082905060005b600082146128fc5780806128e590614c14565b915050600a826128f59190614c8c565b91506128d2565b60008167ffffffffffffffff8111156129185761291761336e565b5b6040519080825280601f01601f19166020018201604052801561294a5781602001600182028036833780820191505090505b5090505b600085146129d7576001826129639190614397565b9150600a856129729190614cbd565b603061297e91906145b0565b60f81b81838151811061299457612993613da0565b5b60200101907effffffffffffffffffffffffffffffffffffffffffffffffffffffffffffff1916908160001a905350600a856129d09190614c8c565b945061294e565b8093505050505b919050565b6001816000016000828254019250508190555050565b600081600001549050919050565b600073ffffffffffffffffffffffffffffffffffffffff168273ffffffffffffffffffffffffffffffffffffffff161415612a77576040517f08c379a0000000000000000000000000000000000000000000000000000000008152600401612a6e90614d3a565b60405180910390fd5b612a808161212a565b15612ac0576040517f08c379a0000000000000000000000000000000000000000000000000000000008152600401612ab790614da6565b60405180910390fd5b612acc60008383612bd5565b6001600360008473ffffffffffffffffffffffffffffffffffffffff1673ffffffffffffffffffffffffffffffffffffffff1681526020019081526020016000206000828254612b1c91906145b0565b92505081905550816002600083815260200190815260200160002060006101000a81548173ffffffffffffffffffffffffffffffffffffffff021916908373ffffffffffffffffffffffffffffffffffffffff160217905550808273ffffffffffffffffffffffffffffffffffffffff16600073ffffffffffffffffffffffffffffffffffffffff167fddf252ad1be2c89b69c2b068fc378daa952ba7f163c4a11628f55a4df523b3ef60405160405180910390a45050565b600073ffffffffffffffffffffffffffffffffffffffff168373ffffffffffffffffffffffffffffffffffffffff161480612c3c5750600073ffffffffffffffffffffffffffffffffffffffff168273ffffffffffffffffffffffffffffffffffffffff16145b15612c4657612dbe565b600860000160009054906101000a900460ff16612d105760006001811115612c7157612c706139d2565b5b6007600083815260200190815260200160002060030160009054906101000a900460ff166001811115612ca757612ca66139d2565b5b14612ce7576040517f08c379a0000000000000000000000000000000000000000000000000000000008152600401612cde90614e12565b60405180910390fd5b6001600860000160006101000a81548160ff021916908315150217905550806008600101819055505b60006007600083815260200190815260200160002060050180549050905060005b818160ff161015612d8f57612d7c8585600760008781526020019081526020016000206005018460ff1681548110612d6c57612d6b613da0565b5b9060005260206000200154612335565b8080612d8790613e9d565b915050612d31565b50600860010154821415612dbc576000600860000160006101000a81548160ff0219169083151502179055505b505b505050565b6000612de48473ffffffffffffffffffffffffffffffffffffffff16612f4b565b15612f3e578373ffffffffffffffffffffffffffffffffffffffff1663150b7a02612e0d612196565b8786866040518563ffffffff1660e01b8152600401612e2f9493929190614e87565b6020604051808303816000875af1925050508015612e6b57506040513d601f19601f82011682018060405250810190612e689190614ee8565b60015b612eee573d8060008114612e9b576040519150601f19603f3d011682016040523d82523d6000602084013e612ea0565b606091505b50600081511415612ee6576040517f08c379a0000000000000000000000000000000000000000000000000000000008152600401612edd90614bf4565b60405180910390fd5b805181602001fd5b63150b7a0260e01b7bffffffffffffffffffffffffffffffffffffffffffffffffffffffff1916817bffffffffffffffffffffffffffffffffffffffffffffffffffffffff191614915050612f43565b600190505b949350505050565b600080823b905060008111915050919050565b828054828255906000526020600020908101928215612f9a579160200282015b82811115612f99578251825591602001919060010190612f7e565b5b509050612fa79190613092565b5090565b508054612fb790613bb8565b6000825580601f10612fc95750612fe8565b601f016020900490600052602060002090810190612fe79190613092565b5b50565b50805460008255906000526020600020908101906130099190613092565b50565b82805461301890613bb8565b90600052602060002090601f01602090048101928261303a5760008555613081565b82601f1061305357805160ff1916838001178555613081565b82800160010185558215613081579182015b82811115613080578251825591602001919060010190613065565b5b50905061308e9190613092565b5090565b5b808211156130ab576000816000905550600101613093565b5090565b6000604051905090565b600080fd5b600080fd5b60007fffffffff0000000000000000000000000000000000000000000000000000000082169050919050565b6130f8816130c3565b811461310357600080fd5b50565b600081359050613115816130ef565b92915050565b600060208284031215613131576131306130b9565b5b600061313f84828501613106565b91505092915050565b60008115159050919050565b61315d81613148565b82525050565b60006020820190506131786000830184613154565b92915050565b600081519050919050565b600082825260208201905092915050565b60005b838110156131b857808201518184015260208101905061319d565b838111156131c7576000848401525b50505050565b6000601f19601f8301169050919050565b60006131e98261317e565b6131f38185613189565b935061320381856020860161319a565b61320c816131cd565b840191505092915050565b6000602082019050818103600083015261323181846131de565b905092915050565b6000819050919050565b61324c81613239565b811461325757600080fd5b50565b60008135905061326981613243565b92915050565b600060208284031215613285576132846130b9565b5b60006132938482850161325a565b91505092915050565b600073ffffffffffffffffffffffffffffffffffffffff82169050919050565b60006132c78261329c565b9050919050565b6132d7816132bc565b82525050565b60006020820190506132f260008301846132ce565b92915050565b613301816132bc565b811461330c57600080fd5b50565b60008135905061331e816132f8565b92915050565b6000806040838503121561333b5761333a6130b9565b5b60006133498582860161330f565b925050602061335a8582860161325a565b9150509250929050565b600080fd5b600080fd5b7f4e487b7100000000000000000000000000000000000000000000000000000000600052604160045260246000fd5b6133a6826131cd565b810181811067ffffffffffffffff821117156133c5576133c461336e565b5b80604052505050565b60006133d86130af565b90506133e4828261339d565b919050565b600067ffffffffffffffff8211156134045761340361336e565b5b61340d826131cd565b9050602081019050919050565b82818337600083830152505050565b600061343c613437846133e9565b6133ce565b90508281526020810184848401111561345857613457613369565b5b61346384828561341a565b509392505050565b600082601f8301126134805761347f613364565b5b8135613490848260208601613429565b91505092915050565b600067ffffffffffffffff8211156134b4576134b361336e565b5b602082029050602081019050919050565b600080fd5b60006134dd6134d884613499565b6133ce565b90508083825260208201905060208402830185811115613500576134ff6134c5565b5b835b818110156135295780613515888261325a565b845260208401935050602081019050613502565b5050509392505050565b600082601f83011261354857613547613364565b5b81356135588482602086016134ca565b91505092915050565b6000806000806080858703121561357b5761357a6130b9565b5b60006135898782880161325a565b945050602085013567ffffffffffffffff8111156135aa576135a96130be565b5b6135b68782880161346b565b935050604085013567ffffffffffffffff8111156135d7576135d66130be565b5b6135e38782880161346b565b925050606085013567ffffffffffffffff811115613604576136036130be565b5b61361087828801613533565b91505092959194509250565b61362581613239565b82525050565b6000602082019050613640600083018461361c565b92915050565b60008060006060848603121561365f5761365e6130b9565b5b600061366d8682870161330f565b935050602061367e8682870161330f565b925050604061368f8682870161325a565b9150509250925092565b600081519050919050565b600082825260208201905092915050565b6000819050602082019050919050565b6136ce81613239565b82525050565b60006136e083836136c5565b60208301905092915050565b6000602082019050919050565b600061370482613699565b61370e81856136a4565b9350613719836136b5565b8060005b8381101561374a57815161373188826136d4565b975061373c836136ec565b92505060018101905061371d565b5085935050505092915050565b6000602082019050818103600083015261377181846136f9565b905092915050565b600080604083850312156137905761378f6130b9565b5b600061379e8582860161325a565b92505060206137af8582860161325a565b9150509250929050565b6000602082840312156137cf576137ce6130b9565b5b60006137dd8482850161330f565b91505092915050565b6137ef81613148565b81146137fa57600080fd5b50565b60008135905061380c816137e6565b92915050565b60008060408385031215613829576138286130b9565b5b60006138378582860161330f565b9250506020613848858286016137fd565b9150509250929050565b60008060408385031215613869576138686130b9565b5b60006138778582860161325a565b925050602083013567ffffffffffffffff811115613898576138976130be565b5b6138a485828601613533565b9150509250929050565b600067ffffffffffffffff8211156138c9576138c861336e565b5b6138d2826131cd565b9050602081019050919050565b60006138f26138ed846138ae565b6133ce565b90508281526020810184848401111561390e5761390d613369565b5b61391984828561341a565b509392505050565b600082601f83011261393657613935613364565b5b81356139468482602086016138df565b91505092915050565b60008060008060808587031215613969576139686130b9565b5b60006139778782880161330f565b94505060206139888782880161330f565b93505060406139998782880161325a565b925050606085013567ffffffffffffffff8111156139ba576139b96130be565b5b6139c687828801613921565b91505092959194509250565b7f4e487b7100000000000000000000000000000000000000000000000000000000600052602160045260246000fd5b60028110613a1257613a116139d2565b5b50565b6000819050613a2382613a01565b919050565b6000613a3382613a15565b9050919050565b613a4381613a28565b82525050565b600060a082019050613a5e600083018861361c565b8181036020830152613a7081876131de565b90508181036040830152613a8481866131de565b9050613a936060830185613a3a565b613aa0608083018461361c565b9695505050505050565b60008060008060808587031215613ac457613ac36130b9565b5b6000613ad28782880161330f565b9450506020613ae38782880161325a565b935050604085013567ffffffffffffffff811115613b0457613b036130be565b5b613b108782880161346b565b925050606085013567ffffffffffffffff811115613b3157613b306130be565b5b613b3d8782880161346b565b91505092959194509250565b60008060408385031215613b6057613b5f6130b9565b5b6000613b6e8582860161330f565b9250506020613b7f8582860161330f565b9150509250929050565b7f4e487b7100000000000000000000000000000000000000000000000000000000600052602260045260246000fd5b60006002820490506001821680613bd057607f821691505b60208210811415613be457613be3613b89565b5b50919050565b7f4552433732313a20617070726f76656420717565727920666f72206e6f6e657860008201527f697374656e7420746f6b656e0000000000000000000000000000000000000000602082015250565b6000613c46602c83613189565b9150613c5182613bea565b604082019050919050565b60006020820190508181036000830152613c7581613c39565b9050919050565b7f4552433732313a20617070726f76616c20746f2063757272656e74206f776e6560008201527f7200000000000000000000000000000000000000000000000000000000000000602082015250565b6000613cd8602183613189565b9150613ce382613c7c565b604082019050919050565b60006020820190508181036000830152613d0781613ccb565b9050919050565b7f4552433732313a20617070726f76652063616c6c6572206973206e6f74206f7760008201527f6e6572206e6f7220617070726f76656420666f7220616c6c0000000000000000602082015250565b6000613d6a603883613189565b9150613d7582613d0e565b604082019050919050565b60006020820190508181036000830152613d9981613d5d565b9050919050565b7f4e487b7100000000000000000000000000000000000000000000000000000000600052603260045260246000fd5b7f4e6f7420617574686f72697a656420746f206d6f7665206f6e65206f72206d6f60008201527f7265206f66207468657365207061727473000000000000000000000000000000602082015250565b6000613e2b603183613189565b9150613e3682613dcf565b604082019050919050565b60006020820190508181036000830152613e5a81613e1e565b9050919050565b7f4e487b7100000000000000000000000000000000000000000000000000000000600052601160045260246000fd5b600060ff82169050919050565b6000613ea882613e90565b915060ff821415613ebc57613ebb613e61565b5b600182019050919050565b7f4f6e65206f72206d6f726520706172747320636f6e73747261696e6564000000600082015250565b6000613efd601d83613189565b9150613f0882613ec7565b602082019050919050565b60006020820190508181036000830152613f2c81613ef0565b9050919050565b7f416c6c20746865207061727473206d7573742068617665207468652073616d6560008201527f206f776e65720000000000000000000000000000000000000000000000000000602082015250565b6000613f8f602683613189565b9150613f9a82613f33565b604082019050919050565b60006020820190508181036000830152613fbe81613f82565b9050919050565b7f50726f76696465206d6f7265207468616e206f6e65207061727420746f20617360008201527f73656d626c650000000000000000000000000000000000000000000000000000602082015250565b6000614021602683613189565b915061402c82613fc5565b604082019050919050565b6000602082019050818103600083015261405081614014565b9050919050565b7f546f6f206d616e792070617274732070726f7669646564000000000000000000600082015250565b600061408d601783613189565b915061409882614057565b602082019050919050565b600060208201905081810360008301526140bc81614080565b9050919050565b7f4552433732313a207472616e736665722063616c6c6572206973206e6f74206f60008201527f776e6572206e6f7220617070726f766564000000000000000000000000000000602082015250565b600061411f603183613189565b915061412a826140c3565b604082019050919050565b6000602082019050818103600083015261414e81614112565b9050919050565b7f4e6f7420617574686f72697a656420746f206d6f766520746869732070617274600082015250565b600061418b602083613189565b915061419682614155565b602082019050919050565b600060208201905081810360008301526141ba8161417e565b9050919050565b7f5061727420636f6e73747261696e656400000000000000000000000000000000600082015250565b60006141f7601083613189565b9150614202826141c1565b602082019050919050565b60006020820190508181036000830152614226816141ea565b9050919050565b7f50617274206e6f7420617373656d626c65640000000000000000000000000000600082015250565b6000614263601283613189565b915061426e8261422d565b602082019050919050565b6000602082019050818103600083015261429281614256565b9050919050565b7f4552433732313a206f776e657220717565727920666f72206e6f6e657869737460008201527f656e7420746f6b656e0000000000000000000000000000000000000000000000602082015250565b60006142f5602983613189565b915061430082614299565b604082019050919050565b60006020820190508181036000830152614324816142e8565b9050919050565b7f43616c6c20646973617373656d626c6550617274282920696e73746561640000600082015250565b6000614361601e83613189565b915061436c8261432b565b602082019050919050565b6000602082019050818103600083015261439081614354565b9050919050565b60006143a282613239565b91506143ad83613239565b9250828210156143c0576143bf613e61565b5b828203905092915050565b7f4e487b7100000000000000000000000000000000000000000000000000000000600052603160045260246000fd5b7f50617274206e6f7420666f756e64206f6e20746865206c697374206f6620636860008201527f696c6472656e0000000000000000000000000000000000000000000000000000602082015250565b6000614456602683613189565b9150614461826143fa565b604082019050919050565b6000602082019050818103600083015261448581614449565b9050919050565b7f4552433732313a2062616c616e636520717565727920666f7220746865207a6560008201527f726f206164647265737300000000000000000000000000000000000000000000602082015250565b60006144e8602a83613189565b91506144f38261448c565b604082019050919050565b60006020820190508181036000830152614517816144db565b9050919050565b7f50726f76696465206174206c65617374207468616e206f6e652070617274207460008201527f6f2061646420746f20617373656d626c79000000000000000000000000000000602082015250565b600061457a603183613189565b91506145858261451e565b604082019050919050565b600060208201905081810360008301526145a98161456d565b9050919050565b60006145bb82613239565b91506145c683613239565b9250827fffffffffffffffffffffffffffffffffffffffffffffffffffffffffffffffff038211156145fb576145fa613e61565b5b828201905092915050565b7f546f6f206d616e79206368696c6472656e000000000000000000000000000000600082015250565b600061463c601183613189565b915061464782614606565b602082019050919050565b6000602082019050818103600083015261466b8161462f565b9050919050565b7f417373656d626c7920616e64207061727473206f776e657220646f6e2774206d60008201527f6174636800000000000000000000000000000000000000000000000000000000602082015250565b60006146ce602483613189565b91506146d982614672565b604082019050919050565b600060208201905081810360008301526146fd816146c1565b9050919050565b7f4552433732314d657461646174613a2055524920717565727920666f72206e6f60008201527f6e6578697374656e7420746f6b656e0000000000000000000000000000000000602082015250565b6000614760602f83613189565b915061476b82614704565b604082019050919050565b6000602082019050818103600083015261478f81614753565b9050919050565b600081905092915050565b60006147ac8261317e565b6147b68185614796565b93506147c681856020860161319a565b80840191505092915050565b60006147de82856147a1565b91506147ea82846147a1565b91508190509392505050565b7f50617274206e756d6265722073686f756c646e27742062652030000000000000600082015250565b600061482c601a83613189565b9150614837826147f6565b602082019050919050565b6000602082019050818103600083015261485b8161481f565b9050919050565b7f41737369676e2061206e616d6520666f7220746865206e657720706172740000600082015250565b6000614898601e83613189565b91506148a382614862565b602082019050919050565b600060208201905081810360008301526148c78161488b565b9050919050565b7f41737369676e2061206d616e75666163747572657220666f7220746865206e6560008201527f7720706172740000000000000000000000000000000000000000000000000000602082015250565b600061492a602683613189565b9150614935826148ce565b604082019050919050565b600060208201905081810360008301526149598161491d565b9050919050565b7f4552433732313a206f70657261746f7220717565727920666f72206e6f6e657860008201527f697374656e7420746f6b656e0000000000000000000000000000000000000000602082015250565b60006149bc602c83613189565b91506149c782614960565b604082019050919050565b600060208201905081810360008301526149eb816149af565b9050919050565b7f4552433732313a207472616e73666572206f6620746f6b656e2074686174206960008201527f73206e6f74206f776e0000000000000000000000000000000000000000000000602082015250565b6000614a4e602983613189565b9150614a59826149f2565b604082019050919050565b60006020820190508181036000830152614a7d81614a41565b9050919050565b7f4552433732313a207472616e7366657220746f20746865207a65726f2061646460008201527f7265737300000000000000000000000000000000000000000000000000000000602082015250565b6000614ae0602483613189565b9150614aeb82614a84565b604082019050919050565b60006020820190508181036000830152614b0f81614ad3565b9050919050565b7f4552433732313a20617070726f766520746f2063616c6c657200000000000000600082015250565b6000614b4c601983613189565b9150614b5782614b16565b602082019050919050565b60006020820190508181036000830152614b7b81614b3f565b9050919050565b7f4552433732313a207472616e7366657220746f206e6f6e20455243373231526560008201527f63656976657220696d706c656d656e7465720000000000000000000000000000602082015250565b6000614bde603283613189565b9150614be982614b82565b604082019050919050565b60006020820190508181036000830152614c0d81614bd1565b9050919050565b6000614c1f82613239565b91507fffffffffffffffffffffffffffffffffffffffffffffffffffffffffffffffff821415614c5257614c51613e61565b5b600182019050919050565b7f4e487b7100000000000000000000000000000000000000000000000000000000600052601260045260246000fd5b6000614c9782613239565b9150614ca283613239565b925082614cb257614cb1614c5d565b5b828204905092915050565b6000614cc882613239565b9150614cd383613239565b925082614ce357614ce2614c5d565b5b828206905092915050565b7f4552433732313a206d696e7420746f20746865207a65726f2061646472657373600082015250565b6000614d24602083613189565b9150614d2f82614cee565b602082019050919050565b60006020820190508181036000830152614d5381614d17565b9050919050565b7f4552433732313a20746f6b656e20616c7265616479206d696e74656400000000600082015250565b6000614d90601c83613189565b9150614d9b82614d5a565b602082019050919050565b60006020820190508181036000830152614dbf81614d83565b9050919050565b7f43616e6e6f74207472616e7366657220636f6e73747261696e65642070617274600082015250565b6000614dfc602083613189565b9150614e0782614dc6565b602082019050919050565b60006020820190508181036000830152614e2b81614def565b9050919050565b600081519050919050565b600082825260208201905092915050565b6000614e5982614e32565b614e638185614e3d565b9350614e7381856020860161319a565b614e7c816131cd565b840191505092915050565b6000608082019050614e9c60008301876132ce565b614ea960208301866132ce565b614eb6604083018561361c565b8181036060830152614ec88184614e4e565b905095945050505050565b600081519050614ee2816130ef565b92915050565b600060208284031215614efe57614efd6130b9565b5b6000614f0c84828501614ed3565b9150509291505056fea264697066735822122040e1d45204954031f9e92462494beea66bea3e4165a63776f39cbe5303138c6b64736f6c634300080a0033",
  "immutableReferences": {},
  "source": "// SPDX-License-Identifier: MIT\r\n\r\npragma solidity ^0.8.0;\r\n\r\nimport \"@openzeppelin/contracts/token/ERC721/ERC721.sol\";\r\nimport \"@openzeppelin/contracts/utils/Counters.sol\";\r\n\r\n// transferring all children with parent\r\n\r\ncontract PartsFactory is ERC721 {\r\n    \r\n    using Counters for Counters.Counter;\r\n    Counters.Counter private partsCounter;\r\n    \r\n    // Parts assembly status \r\n    enum AssemblyStatus {DISASSEMBLED, ASSEMBLED}\r\n\r\n    // Attributes of Parts\r\n    struct Part {\r\n        uint256 partNumber;\r\n        string name;\r\n        string manufacturer;\r\n        AssemblyStatus status;\r\n        uint256 parentPartId;\r\n        uint256[] childrenPartId;\r\n    }\r\n\r\n    // Transfer status helper structure\r\n    struct TransferHelper {\r\n        bool inTransfer;\r\n        uint256 parentPartId;\r\n    }\r\n\r\n    // partId to Part Struct\r\n    mapping(uint256 => Part) public parts;\r\n    TransferHelper transferHelper;\r\n\r\n\r\n    constructor(string memory _name, string memory _symbol) ERC721(_name, _symbol) {}\r\n\r\n    /*--------------------------EVENTS---------------------------*/\r\n\r\n    event newPart(address indexed _owner, uint256 indexed _partNumber, uint256 indexed _partId);\r\n    event partAssembled(address indexed _owner, uint256 indexed _partNumber, uint256 indexed _partId);\r\n    event partDisassembled(address indexed _owner, uint256 indexed _partNumber, uint256 indexed _partId);\r\n    event partAddedToAssembly(address indexed _owner, uint256 indexed _parentPartId, uint256 indexed _partId);\r\n    event partRemovedFromAssembly(address indexed _owner, uint256 indexed _parentPartId, uint256 indexed _partId);\r\n\r\n    /*------------------------MODIFIERS-------------------------*/\r\n\r\n    // Checks if msg.sender is authorized to assemble parts \r\n    modifier areAuthorized(uint256[] memory _partIds) {\r\n        for(uint8 i = 0; i < _partIds.length; i++) {\r\n            require(_isApprovedOrOwner(msg.sender, _partIds[i]), \"Not authorized to move one or more of these parts\");       \r\n        }\r\n        _;\r\n    }\r\n\r\n    // Checks if all parts are disassembled\r\n    modifier areDisassembled(uint256[] memory _partIds) {\r\n        for(uint8 i = 0; i < _partIds.length; i++) {\r\n            require(parts[_partIds[i]].status == AssemblyStatus.DISASSEMBLED, \"One or more parts constrained\");       \r\n        }\r\n        _;\r\n    }\r\n\r\n    // Checks if all parts have the same owner\r\n    modifier haveSameOwner(uint256[] memory _partIds) {\r\n        address prevOwner;\r\n        for(uint8 i = 0; i < _partIds.length; i++) {\r\n            address currOwner = ownerOf(_partIds[i]);\r\n            require(currOwner == prevOwner || prevOwner == address(0), \"All the parts must have the same owner\");\r\n            prevOwner = currOwner;\r\n        }\r\n        _;\r\n    }    \r\n\r\n    // Checks if msg.sender is authorized to assemble part\r\n    modifier isAuthorized(uint256 _partId) {   \r\n        require(_isApprovedOrOwner(msg.sender, _partId), \"Not authorized to move this part\");       \r\n        _;\r\n    }\r\n\r\n    // Checks if part is disassembled\r\n    modifier isDisassembled(uint256  _partId) {\r\n        require(parts[_partId].status == AssemblyStatus.DISASSEMBLED, \"Part constrained\");       \r\n        _;\r\n    }\r\n\r\n\r\n    /*------------------------FUNCTIONS-------------------------*/\r\n\r\n    // Mints `partId` and transfers it to `_owner`.\r\n    function mintSinglePart(\r\n        address _owner,\r\n        uint256 _partNumber,\r\n        string memory _name,\r\n        string memory _manufacturer\r\n    )   public\r\n        returns (uint256)\r\n    {\r\n        require(_partNumber != 0, \"Part number shouldn't be 0\");\r\n        require(bytes(_name).length > 0, \"Assign a name for the new part\");\r\n        require(bytes(_manufacturer).length > 0, \"Assign a manufacturer for the new part\");\r\n\r\n        Part memory part = Part({\r\n            partNumber: _partNumber,\r\n            name: _name,\r\n            manufacturer: _manufacturer,\r\n            status: AssemblyStatus.DISASSEMBLED,\r\n            parentPartId: 0,\r\n            childrenPartId: new uint[](0)\r\n        });\r\n\r\n        partsCounter.increment();\r\n        uint256 partId = partsCounter.current();\r\n        parts[partId] = part;\r\n        _mint(_owner, partId);\r\n\r\n        emit newPart(_owner, _partNumber, partId);\r\n\r\n        return partId;\r\n    }\r\n\r\n    // Assembles `_partIds` and mints `newPartID` and tranfers it to msg.sender\r\n    function assembleParts(\r\n        uint256 _newPartNumber,\r\n        string memory _newPartName,\r\n        string memory _newPartManufacturer,\r\n        uint256[] memory _partIds\r\n    )   public \r\n        areAuthorized(_partIds)\r\n        areDisassembled(_partIds)\r\n        haveSameOwner(_partIds)\r\n        returns (uint256) {\r\n        require(_partIds.length > 1, \"Provide more than one part to assemble\");\r\n        require(_partIds.length <= 10, \"Too many parts provided\");\r\n\r\n        address owner = ownerOf(_partIds[0]);\r\n        uint256 newPartId = mintSinglePart(owner, _newPartNumber, _newPartName, _newPartManufacturer);\r\n\r\n        parts[newPartId].childrenPartId = _partIds;\r\n\r\n        for(uint8 i = 0; i < _partIds.length; i++) {\r\n            parts[_partIds[i]].status = AssemblyStatus.ASSEMBLED;\r\n            parts[_partIds[i]].parentPartId = newPartId;\r\n        }\r\n\r\n        emit partAssembled(owner, _newPartNumber, newPartId);\r\n        return newPartId;\r\n    }\r\n\r\n    // Disassembled children parts from `_partId`\r\n    function disassemblePart(\r\n        uint256 _partId\r\n    )   public \r\n        isAuthorized(_partId)\r\n        isDisassembled(_partId)\r\n        returns (uint256[] memory) {\r\n        require(parts[_partId].childrenPartId.length > 0, \"Part not assembled\");\r\n\r\n        uint256 length = parts[_partId].childrenPartId.length;\r\n        uint256[] memory disassembledPartIds = new uint256[](length);\r\n        for(uint8 i = 0; i < length; i++) {\r\n            disassembledPartIds[i] = parts[_partId].childrenPartId[i];\r\n            parts[parts[_partId].childrenPartId[i]].status = AssemblyStatus.DISASSEMBLED;\r\n            parts[parts[_partId].childrenPartId[i]].parentPartId = 0;\r\n        }\r\n\r\n        emit partDisassembled(ownerOf(_partId), parts[_partId].partNumber, _partId);\r\n\r\n        _burn(_partId);\r\n        delete parts[_partId];\r\n        return disassembledPartIds;\r\n    }\r\n\r\n    // Adds `_partIds` to `_assemblyPartId` children parts \r\n    function addToAssembly(\r\n        uint256 _assemblyPartId,\r\n        uint256[] memory _partIds\r\n    )   public \r\n        areAuthorized(_partIds)\r\n        isAuthorized(_assemblyPartId)\r\n        areDisassembled(_partIds)\r\n        isDisassembled(_assemblyPartId)\r\n        haveSameOwner(_partIds)\r\n        {\r\n        address owner = ownerOf(_assemblyPartId);\r\n        require(_partIds.length >= 1, \"Provide at least than one part to add to assembly\");\r\n        require(parts[_assemblyPartId].childrenPartId.length + _partIds.length <= 10, \"Too many children\");\r\n        require(owner == ownerOf(_partIds[0]), \"Assembly and parts owner don't match\");\r\n\r\n        for(uint8 i=0; i < _partIds.length; i++) {\r\n            parts[_assemblyPartId].childrenPartId.push(_partIds[i]);\r\n            parts[_partIds[i]].status = AssemblyStatus.ASSEMBLED;\r\n            parts[_partIds[i]].parentPartId = _assemblyPartId;\r\n\r\n            emit partAddedToAssembly(owner, _assemblyPartId, _partIds[i]);\r\n        }\r\n    }\r\n\r\n    // Remove `_partId` from `_assemblyPartId`\r\n    // Improve: work for two-size assembly as well  \r\n    function removeFromAssembly(\r\n        uint256 _assemblyPartId,\r\n        uint256 _partId\r\n    )   public\r\n        isAuthorized(_partId)\r\n        isAuthorized(_assemblyPartId)\r\n        isDisassembled(_assemblyPartId)\r\n        {\r\n        //Call disassemblePart() if part has only 2 parts assembled\r\n        require(parts[_assemblyPartId].childrenPartId.length > 2, \"Call disassemblePart() instead\");\r\n\r\n        bool found;\r\n        uint256 length = parts[_assemblyPartId].childrenPartId.length;\r\n        for(uint8 i = 0; i < length; i++) {\r\n            if(parts[_assemblyPartId].childrenPartId[i] == _partId) {\r\n                found = true;\r\n                parts[_assemblyPartId].childrenPartId[i] = parts[_assemblyPartId].childrenPartId[length - 1];\r\n                parts[_assemblyPartId].childrenPartId.pop();\r\n                parts[_partId].status = AssemblyStatus.DISASSEMBLED;\r\n                parts[_partId].parentPartId = 0;\r\n                break;\r\n            }\r\n        }\r\n        require(found, \"Part not found on the list of children\");\r\n        emit partRemovedFromAssembly(ownerOf(_assemblyPartId), _assemblyPartId, _partId);\r\n    }\r\n\r\n    function _beforeTokenTransfer(\r\n        address from,\r\n        address to,\r\n        uint256 tokenId\r\n    )   internal override {\r\n        if(from == address(0) || to == address(0)) {\r\n            return;\r\n        } else if(!transferHelper.inTransfer) {\r\n            require(parts[tokenId].status == AssemblyStatus.DISASSEMBLED, \"Cannot transfer constrained part\");\r\n            transferHelper.inTransfer = true;\r\n            transferHelper.parentPartId = tokenId;\r\n        }\r\n\r\n        // recursive transfer of all the children along with a parent\r\n        uint256 length = parts[tokenId].childrenPartId.length;\r\n        for(uint8 i = 0; i < length; i++) {\r\n            _transfer(from, to, parts[tokenId].childrenPartId[i]);\r\n        }\r\n\r\n        if(tokenId == transferHelper.parentPartId) {\r\n            transferHelper.inTransfer = false;\r\n        }\r\n    }\r\n}\r\n",
  "sourcePath": "C:\\Users\\kaspe\\Documents\\GBC_Blockchain_Development\\Smart_Contracts_Development_Essentials\\ERC-721-Assigment\\contracts\\PartsFactory.sol",
  "compiler": {
    "name": "solc",
    "version": "0.8.10+commit.fc410830.Emscripten.clang"
  },
  "schemaVersion": "3.4.3",
  "updatedAt": "2021-11-27T05:51:40.056Z",
  "devdoc": {
    "kind": "dev",
    "methods": {
      "approve(address,uint256)": {
        "details": "See {IERC721-approve}."
      },
      "balanceOf(address)": {
        "details": "See {IERC721-balanceOf}."
      },
      "getApproved(uint256)": {
        "details": "See {IERC721-getApproved}."
      },
      "isApprovedForAll(address,address)": {
        "details": "See {IERC721-isApprovedForAll}."
      },
      "name()": {
        "details": "See {IERC721Metadata-name}."
      },
      "ownerOf(uint256)": {
        "details": "See {IERC721-ownerOf}."
      },
      "safeTransferFrom(address,address,uint256)": {
        "details": "See {IERC721-safeTransferFrom}."
      },
      "safeTransferFrom(address,address,uint256,bytes)": {
        "details": "See {IERC721-safeTransferFrom}."
      },
      "setApprovalForAll(address,bool)": {
        "details": "See {IERC721-setApprovalForAll}."
      },
      "supportsInterface(bytes4)": {
        "details": "See {IERC165-supportsInterface}."
      },
      "symbol()": {
        "details": "See {IERC721Metadata-symbol}."
      },
      "tokenURI(uint256)": {
        "details": "See {IERC721Metadata-tokenURI}."
      },
      "transferFrom(address,address,uint256)": {
        "details": "See {IERC721-transferFrom}."
      }
    },
    "version": 1
  },
  "userdoc": {
    "kind": "user",
    "methods": {},
    "version": 1
  }
}